:020000040800F2
:10000000F80F00201D110008ED270008F11000086E
:10001000F1100008F1100008F1100008F1100008BC
:10002000000000000000000000000000590E000861
:10003000F110000800000000110E0008011B00086C
:10004000D50E0008D50E0008D50E0008D50E000804
:10005000D50E0008D50E0008D50E0008D50E0008F4
:10006000D50E0008D50E0008D50E0008D50E0008E4
:10007000D50E0008D50E0008D50E0008D50E0008D4
:10008000D50E0008D50E0008D50E0008D50E0008C4
:10009000D50E0008D50E0008D50E0008D50E0008B4
:1000A000D50E0008D50E0008D50E0008D50E0008A4
:1000B000D50E0008D50E0008D50E0008D50E000894
:1000C000D50E0008D50E0008D50E0008D50E000884
:1000D000D50E0008D50E0008D50E0008D50E000874
:1000E000D50E0008D50E0008D50E0008D50E000864
:1000F000D50E0008D50E0008D50E0008D50E000854
:10010000D50E0008D50E0008D50E0008D50E000843
:10011000D50E0008D50E0008D50E0008D50E000833
:10012000D50E0008D50E0008D50E0008D50E000823
:10013000D50E0008D50E0008D50E0008D50E000813
:10014000D50E0008D50E0008D50E0008D50E000803
:10015000D50E0008D50E0008D50E0008D50E0008F3
:10016000D50E0008D50E0008D50E0008D50E0008E3
:10017000D50E0008D50E0008D50E0008D50E0008D3
:10018000D50E0008D50E0008D50E0008D50E0008C3
:10019000D50E0008D50E0008D50E0008D50E0008B3
:1001A000D50E0008D50E0008D50E0008D50E0008A3
:1001B000D50E0008D50E0008D50E0008D50E000893
:1001C000D50E0008D50E0008D50E0008D50E000883
:1001D000D50E0008D50E0008D50E0008D50E000873
:1001E000D50E0008D50E0008D50E0008D50E000863
:1001F000D50E0008D50E0008D50E0008D50E000853
:10020000D50E0008D50E0008D50E0008D50E000842
:10021000D50E0008D50E0008D50E0008D50E000832
:10022000D50E0008D50E0008D50E0008D50E000822
:04023000D50E0008DF
:1002340053B94AB9002908BF00281CBF4FF0FF3149
:100244004FF0FF3000F00CB8ADF1080C6DE904CEAE
:1002540000F008F8DDF804E0DDE9022304B070479B
:10026400704700BF2DE9F04786468C460846089E35
:10027400154674461946002B40F0C1808542B2FAF7
:1002840082F245D94AB1C2F1200300FA02FC95403A
:1002940094402EFA03F343EA0C0C4FEA154EA8B22D
:1002A400230CBCFBFEF80EFB18CC08FB00F943EA58
:1002B4000C43994528D9EB1808F1FF3704D2994526
:1002C40002D9A8F102072B44A3EB0903A4B2B3FBA0
:1002D400FEFC0EFB1C330CFB00F044EA0344A0427A
:1002E40014D92C190CF1FF3304D2A04202D9ACF179
:1002F40002032C44241A43EA07401EB1D4400023CD
:1003040034607360BDE8F0874746DDE76346F1E794
:1003140092BB431B01214FEA154EAFB2200CB3FB35
:10032400FEFC0EFB1C330CFB07F840EA0343984524
:1003340061D9EB180CF1FF3004D2984502D9ACF125
:1003440002002B44A3EB0803A4B2B3FBFEFC0EFB98
:100354001C330CFB07F744EA0344A7424DD92C197C
:100364000CF1FF3304D2A74202D9ACF102032C44AE
:10037400E41B43EA0040C0E7C2F1200395409440E7
:1003840020FA03F12EFA03F34FEA154E9040AFB270
:100394000343B1FBFEFC0EFB1C10190C0CFB07F80D
:1003A40041EA0041884522D969180CF1FF3004D292
:1003B400884502D9ACF102002944A1EB08019BB2A3
:1003C400B1FBFEFC0EFB1C110CFB07F743EA0143D7
:1003D4009F420ED9EB180CF1FF3104D29F4202D98F
:1003E400ACF102012B44DB1B41EA004193E7604678
:1003F400E3E76146F7E76046A4E76346B8E783426C
:1004040006D916B9002108467CE7C6E900E0F9E7F9
:10041400B3FA83F78FB9834201D3724508D8BEEB90
:10042400020460EB030301209C461EB9002169E726
:100434003846FAE7C6E9004CF8E7C7F1200CBB40A0
:100444000EFA07F522FA0CF42EFA0CF1BA401C430A
:1004540020FA0CF3B8404FEA144901431FFA84FE12
:10046400B3FBF9F809FB18300B0C08FB0EFA43EA4E
:1004740000439A4540D9E31808F1FF3004D29A4565
:1004840002D9A8F102002344A3EB0A0389B2B3FB07
:10049400F9F809FB183308FB0EFE41EA03418E45C7
:1004A4002CD9611808F1FF3304D28E4502D9A8F182
:1004B4000203214443EA0040A1EB0E01A0FB029891
:1004C4004145CE46434602D306D14D4504D20138B8
:1004D400B9EB020E68EB0403002EA7D0B5EB0E02B5
:1004E40061EB030101FA0CFC22FA07F3F9404CEA30
:1004F4000303C6E9003199E74046C5E74346D9E717
:100504000149024802F0EFB8BA370008C9370008B9
:10051400014B1B68184700BF00000020014B186006
:10052400704700BF0000002007B50B4600210246BB
:100534000091034800F006F803B05DF804FB00BF27
:10054400150500082DE9F04F81468B4617461C46D9
:10055400002595B0387808B9284657E37B1C252830
:10056400039306D05946C8470028C0F24F8301358B
:10057400FBE1182200210EA802F058F97B78252B04
:100584007DD0002398469E469C461E46781C014614
:1005940010F8012B2B2A00F0A18000F29880202A69
:1005A40000F09F80232A00F09F802BB19DF84030FB
:1005B40043F040038DF84030B8F1000F05D09DF8AA
:1005C400403043F020038DF84030BEF1000F05D0D9
:1005D4009DF8403043F010038DF84030BCF1000F1B
:1005E40005D09DF8403043F008038DF840302EB11B
:1005F4009DF8403043F004038DF840309DF84030BE
:1006040003F04400442803D16FF386138DF840307F
:100614009DF840302A2A43F080038DF840307FD182
:100624009DF841204B1C42F001028DF841201A78BC
:100634002E2A0CBF012100219DF8412061F34102C3
:100644008DF8412078D15A782A2A6ED000224FF0B2
:100654000A0C0133194611F8010BA0F13006092EDA
:1006640040F295809DF840101292C1F3400040EA98
:10067400D2700A4660F341028DF840205CE0BA1C57
:1006840003928DF843309DF84130DA0740F12E8112
:1006940054F8048BB8F1000F07DA9DF84020C8F134
:1006A400000842F004028DF840205E0740F12781E3
:1006B40054F804ABBAF1000F80F226819DF8413062
:1006C4006FF341038DF841304FF0FF3A1CE12D2ABE
:1006D4000DD0302A7FF469AF012358E74FF0010CA5
:1006E40055E74FF0010E52E74FF001084FE701269E
:1006F4004DE703460EFB0262303A184610F8016BD0
:10070400A6F1300CBCF1090FF3D999428FD09DF8B2
:1007140040101192D20F62F341018DF8401086E728
:100724000B4600224FF00A0EE7E79DF84120023302
:1007340042F004028DF841201A786C2A47D02BD855
:10074400682A31D06A2A4BD04C2A51D01A4612F862
:10075400013B782B03928DF843309DF8412000F241
:10076400BE806D2B51D8692B00F2B980572B67D806
:10077400412B03D0453B022B00F2B18004229DF8AB
:10078400423062F302038DF84230012373E00CFB24
:1007940002020B46303A5DE7742A25D07A2AD5D175
:1007A40006219DF841200CE05A78682A9DF84120E2
:1007B40006D1012161F3C6028DF841200233C5E759
:1007C400022161F3C6028DF841200133BEE75A7855
:1007D4006C2A9DF8412001D10421EBE70321F0E7C5
:1007E40005219DF84120ECE707219DF84120E8E729
:1007F400BDF8402022F4F04222F0020242F480428A
:1008040042F00202ADF84020DFE76E3BD9B201238B
:100814008B4040F282410B4237D113F0240F51D167
:10082400D8075CD503219DF8423061F302038DF8AB
:10083400423002F07803A3F140014B424B411AE0ED
:100844000120A3F15801C9B200FA01F111F4624F79
:1008540094D140F6010631421DD111F4043F3ED03B
:100864009DF8423060F3020302F07802402A8DF8CA
:10087400423034D000239DF84020C2F340010B43A2
:1008840063F341028DF84020FDE602219DF84230D9
:1008940061F30203E8E702209DF8421002F07802B7
:1008A40060F30201402A8DF8421002BF9DF8401007
:1008B40041F001018DF84010632BDBD1131E18BFEA
:1008C4000123D8E703219DF8423012F0780F61F339
:1008D40002038DF8423014BF01230023CBE79DF8B7
:1008E400403043F001038DF84030C3E79DF94020C8
:1008F400002AACBF4FF0FF38DDF84480D5E69807F6
:100904007FF5E2AEDDF848A00023CDE911339DF870
:1009140042309DF8411003F00703012BC1F3C301DA
:1009240033D1CB1E042B04D8DFE803F02146462143
:100934002100236801294FEAE372CDE90E321CD16C
:100944009DF93830DA17CDE90E3204349DF8403081
:1009540013F0030650D03A4659464846039B01F02B
:100964001FFF0028C0F252810544039FF2E554F8AA
:10097400043BDA17CDE90E32E8E70229E5D11AB2D1
:1009840043F3C033CDE90E23DFE7022B24D1CB1E82
:10099400042B04D8DFE803F01810101818000129FC
:1009A4004FF0000254F8043B14D00229CDE90E3272
:1009B400CCD19BB20E93C9E7073424F00704F4E8C2
:1009C4000223CDE90E23C1E754F8043B0E93002320
:1009D4000F93BBE7DBB2CDE7042B08D1073424F037
:1009E4000704D4E900230834CDE90E23AEE7032B32
:1009F400ACD154F8043BDDE79DF843007828B4D823
:100A040062281CD825283FF4ADAD5828ADD1DDE9C6
:100A14000E010DF13603009310AA08AB01F07AFE23
:100A2400BAF1000F074680F29980002F9DD00DF196
:100A34003603D81B002E00F0C0800130BDE06338BF
:100A4400152892D801A252F820F000BF250B000807
:100A5400370B00086F0900086F0900086F090008C8
:100A64006F090008370B00086F0900086F090008B8
:100A74006F0900086F090008C30B00085B0B00082E
:100A8400810B00086F0900086F090008A90A000813
:100A94006F0900085B0B00086F0900086F09000864
:100AA4005B0B0008BAF1000F0E9F35DB5146384648
:100AB40001F0A8FE07EB000A002F3FF456AF002612
:100AC4009DF8423013F01002059200F0928002303B
:100AD4005B06119A48BF129B104448BFC018B8F176
:100AE400000F049240F39F809DF84020A8EB00087B
:100AF400C2F380035007069300F19580510640F13C
:100B040088803EB159463046C84700287EDB069BA4
:100B140001351E4630227DE0384601F06CFEC9E7FF
:100B24000E9B002601208DF8203008AF0DF1210A1C
:100B3400C6E719075ABFC3F300135E012B26DDE98C
:100B44000E23002BBFF663AF524263EB43032D2603
:100B5400CDE90E235BE7002659E700269DF84020E7
:100B64000DF13603DB1B6FF386129A458DF8402096
:100B74007FF65BAFAAEB0303119356E70E9890B38D
:100B84000DF136030093002108AB10AA01F0C2FD59
:100B9400BDF84230BAF1000F03F0EF0343F4F04321
:100BA40043F010030746ADF84230D6DA00283FF48C
:100BB400DCAE00260DF13603181A9A4680E70E9B28
:100BC40007293FF6D2AEDFE801F00C04060C080852
:100BD4000C0C1D70C9E61D80C7E6EA17C3E9005274
:100BE400C3E61D60C1E62F4F064607F1050A05203E
:100BF40066E71A0748BF01306AE710460793069272
:100C04005946C847DDE90623002804DA15B0BDE8D3
:100C1400F08F202243461946002903F1FF33ECDC10
:100C2400454498466D1A2EB159463046C8470028A7
:100C3400ECDB01359DF84230DA0601D41B0705D5FB
:100C440059463020C8470028E0DB0135059B33B105
:100C540059469DF84300C8470028D7DB0135049E58
:100C64002E4405E059463020C8470028CEDB013524
:100C7400731B002BF6DC53463A465946484601F0AE
:100C84008FFD0028C2DB0544A844A8EB0503002B14
:100C94007FF76BAE59462020C8470028B6DB0135E4
:100CA400F3E700BFDA37000882B04FF01002EFF329
:100CB400118382F31288BFF36F8F83F31188BFF31C
:100CC4006F8F00200F4B1A6822F004021A601A6812
:100CD40042F001021A600C4B0C4A1A600C4BD3F818
:100CE400942042F00402C3F89420D3F89430094AC3
:100CF40003F004030193019BD36A43F00103D3621D
:100D040002B07047000403403400002000093D0095
:100D1400000C024600080246014910220A6070478E
:100D240010ED00E072B6404080F31188BFF36F8F7E
:100D3400BFF34F8F30BF62B6BFF36F8F704700BFF2
:100D440040B2002807DB01234109034A00F01F00D9
:100D5400834042F82130704700E100E040B20028AF
:100D640001F10101ACBF00F16040064B4FEA0111F3
:100D7400C9B2ABBF00F5614000F00F0080F800136A
:100D84001954704714ED00E030BFFFF7FDBF00BFFA
:100D94000F4A08B50F4B22F07F029A60BFF34F8FC2
:100DA400BFF36F8FD3F8882022F47002C3F8882031
:100DB400EFF3148323F0040383F31488BFF36F8FDA
:100DC40001F052F801F03EFB00F09AF901F08CF8C2
:100DD4000000000800ED00E0094A0A499368096828
:100DE4009866D96608494B6843F080534B600023EA
:100DF40083F31188BFF36F8F9368D86E704700BF79
:100E040080020020B037000800ED00E00F498A6836
:100E14004FF030001044EFF3098C80E8F01F1020ED
:100E240080F31288BFF36F8F094F4FF000668A6911
:100E34008A603E60906E0023936680F3118802F10D
:100E4400300090E8F01F8CF309887047800200207E
:100E540004ED00E01EF0040F0CBFEFF30880EFF385
:100E64000980816911F8021C0229FFD001B501F043
:100E7400B3FC01BD42F8203C009B0B4942F81C3CEA
:100E8400019B21F0010142F8183C029B42F8081C26
:100E940042F8143C4FF0807342F8043C0023203A9B
:100EA40002658366704700BF05270008074B9860FA
:100EB400104681F30988002163B681F31188BFF3DA
:100EC4006F8F0022002301F01BFC00BF8002002072
:100ED40001B5EFF30580A0F110004FEAC00004490A
:100EE400014409C99847BDE8014002490847000088
:100EF40058310008FD0E0008044B9968986988422F
:100F040003D003494FF080520A60704780020020EA
:100F140004ED00E0074B00209A6A9A6A9A6A9A6A7A
:100F24009A6A9A6A9A6A9A6A6FEA02426FEA124263
:100F34009A62704700ED00E00D4B9A6A9A6A9A6AC9
:100F4400920508D59A6B9A6A120404D518B19A6A64
:100F540022F400429A6200209A6A9A6AD205044AEC
:100F640058BF9B6A936A43F47F4393620870704747
:100F740000ED00E0124B9A6A9A6A9A6A920708D5C1
:100F84005A6B9A6A120604D518B19A6A22F0800242
:100F94009A629A6A9A6A9A6AD0064FF0000058BF19
:100FA4009B6A074B9A6A920642BF5A6A22F400521D
:100FB4005A629A6A42F0FF029A620870704700BF50
:100FC40000ED00E070B5444B06465B6800258AB02E
:100FD400C3F3080385F31188BFF36F8F02F07F40DA
:100FE400B0F17F4F11D102F00C0008280DD010078A
:100FF4004CBF0E4601250022033B8DF80720032B2E
:1010040005D8DFE803F01E5C60592E46F3E70024A0
:101014009DF807309BB92022314602A801F0FBFB62
:10102400099B002D53D0C3F3080222B96FEA53235E
:101034006FEA43230993204602A901F0CBFB0AB0CF
:1010440070BD254BDA6A9107E1D4DA6A002ADEDB47
:10105400DA6A5200DBD55A69B16942F480725A6186
:10106400BFF34F8FBFF36F8F5A6931F8021C22F41C
:1010740080725A61BFF34F8FBFF36F8F4DF60272C8
:10108400914209D09A6AD2B242B101200DF107010E
:10109400FFF770FF0446BBE73468B9E79A6A12F4B5
:1010A4007F4F05D001200DF10701FFF745FFF1E760
:1010B4009B6AB3F5803FAAD3FFF72CFFEAE7002031
:1010C4000DF10701E4E700200DF10701EDE723F43A
:1010D400FF7323F00103ADE700ED00E0024A53691A
:1010E40043F010035361704700ED00E0EFF3088014
:1010F400EFF3098101B57246FFF764FF01BD00BF3C
:10110400002310210348C21801337D2B82F80013F9
:10111400F9D1704700E100E0102080F311880848FD
:101124004FF40061401880F30988EFF31480022122
:10113400084380F31488BFF36F8FFFF729FE000084
:10114400B8020020084B9B6883420BD1EFF3058360
:1011540043B1064B5A6842F080525A605A6A22F4EC
:1011640000425A6201F00EB98002002000ED00E056
:10117400014B1860704700BF040000202DE9F041C6
:1011840004460F4615464FF001080D4EBC4201DBE4
:10119400BDE8F081F26808FA04F333EA020203D0EE
:1011A400326933EA020209D1F360336155F834300D
:1011B40023B12A1D204652F8341098470134E5E73C
:1011C400002002460123054A8340D2F880100B43D5
:1011D400C2F88030024B1856FFF7B2BD0020024619
:1011E400FE3700081F2808DC012204498240D1F898
:1011F400803023EA0203C1F88030704700200246A1
:1012040003292AD8DFE801F0020E141F0122134B30
:101214008240196821EA02011960596821EA020230
:101224005A60704701220D4B824019681143F3E75D
:1012340001220A4B8240596811435960196821EA16
:1012440002021A607047012303FA00F0034B1A6884
:1012540002431A605A6810435860704700200246DF
:1012640010B5074B044653F8300028B943F834103E
:1012740003EBC4035A6010BD6FF00F00FBE700BF1F
:10128400600100200022034B43F8302003EBC0032D
:101294005A607047600100200A68112A13D80B4B6A
:1012A400D340DB070FD54968CBB203F18C4303F578
:1012B40003331868C1F30242C1F304218A40024394
:1012C4001A60002070476FF0850070470C88020098
:1012D4000D4A0E49936813F4000308D0936813F47D
:1012E40000030CD1D2F8F42051F823007047906821
:1012F400000207D4D2F8F430C3F30333F4E793685D
:101304001B0FF1E79268EFE7000C02465C37000818
:1013140010B52A4B144618680B68112B2CD813B936
:101324006FF0850034E0013B102BF9D801A252F88C
:1013340023F000BFAF1300089713000897130008A9
:101344002513000825130008251300082513000899
:10135400251300082513000825130008B9130008F5
:10136400251300082513000825130008A3130008FB
:10137400A913000897130008882B07D08C3B1C2B5B
:10138400CED80F4A22FA03F3DB07C9D52060002028
:1013940010BDFFF79DFF502358434008F6E7FFF7C1
:1013A40097FFF3E7074B1868F0E7FFF791FF502327
:1013B4005843EBE74FF40040E8E700BF3400002057
:1013C400110111115C37000837B5884CE36913F03B
:1013D4000C0F40F00481FFF77BFF236A844A03F07B
:1013E4000F03D35C20FA03F5824BDA6842F44032EF
:1013F400DA60DA681204FCD57F48854201D200F035
:1014040075FC7A4BD3F8942042F00402C3F894207C
:10141400D3F8943003F004030193019B754B9A6A4B
:10142400D40706D49A6A42F001029A629A6AD007F3
:10143400FCD56E4BD3F8F02022F0180242F01002D3
:10144400C3F8F020D3F8F02042F00102C3F8F020F2
:10145400D3F8F0209107FBD5D3F8F02042F08002B6
:10146400C3F8F020614BD3F8F0201205FBD5614995
:101474008A6A22F001028A629A6842F400029A603F
:101484009A6822F0704242F080429A601A6842F0F0
:1014940040021A601A6842F008021A601A6842F0A0
:1014A40001021A60514B1A685407FCD5DA6902F03C
:1014B4000C020C2A1AD11A68500507D41A6842F48F
:1014C40080721A60494A13685905FCD5474B1A6A59
:1014D40022F00F021A62DA6922F0030242F00102DA
:1014E400DA61DA6902F00C02042AFAD13F4C23686B
:1014F40023F080732360A36A23F0030343F0010302
:10150400A362FFF7E5FE3D4AA0F57413A3F510634B
:10151400934266D93A4B3B4A0344934263D2032233
:10152400A36A23F47063A362A36A23F00C0343EA5F
:101534008203A362636B23F4FF7323F0010343F07C
:101544004F036363A36A23F01003A362636B23F462
:10155400FE0343F480336363A36A43F40033A3625A
:10156400636B23F0FE4343F080736363A36A43F425
:101574008023A362236843F0807323601B4B1A68A3
:101584009201FCD5DA6A22F00302DA621A6B22F0C5
:1015940003021A631A6A22F00F021A621A6A22F00C
:1015A40070021A621A6A22F4E0621A625A6A22F01B
:1015B40070025A62DA6942F00302DA610B4AD369B3
:1015C40003F00C030C2BFAD10B4CA54202D320469A
:1015D40000F08CFB00200C4B1C6003B030BD0020DD
:1015E400FBE602229CE76FF02100F6E7000C0246BE
:1015F400B9380008000802460068890900093D005E
:10160400FFED85FF00127A003400002008B507487A
:1016140001F0EEFB38B10648FFF7AAFD0448FEF7D7
:101624007DFF002008BD6FF01200FBE74031000889
:10163400391600080A2838B50446074D04D1AB68AA
:101644000D2128465B689847AB6803485B68E1B2A4
:101654009847204638BD00BF4031000838B50369BB
:10166400044658600A4D284601F0C2FB68B1094A95
:101674002846136943F0005313616168AB680C3169
:101684001B68984700EAE07038BD6FF01200FBE772
:101694002030000800080246F8B51746B7F5001FC9
:1016A4000C461D46466802691BD1CA00C1F381037A
:1016B4002849183351F823100F2302F018029340DD
:1016C4000B40D340B2689A4209D12046FFF78AFD05
:1016D4002046FFF7D7FD00212046FFF791FD0020AB
:1016E400F8BDB7F5800F2ED020461B49FFF7B8FD93
:1016F40060BB0F2004F00C0303F18C4303F50833A3
:10170400E200196E02F01802904021EA0001B0686C
:10171400B5F1806F00FA02F242EA01021A660ED0B5
:10172400B5F1C06F0DD005F17E43594259414900CE
:101734002046FFF765FD2046FFF744FDCFE7012172
:10174400F6E70321F4E76FF08500C9E76FF00F00B7
:10175400C6E700BF00200246E32B0008F7B50646A3
:10176400446807694148786001F042FB002879D059
:101774007868616883681B6898470546002869D1C2
:10178400014601AAA06901F01CFB002801DA054604
:1017940060E0019B2A461979186800F061FA002874
:1017A400F5DB2268136823F001031360216851E814
:1017B400003F43F00C0341E80032002AF7D12369CB
:1017C400022B4AD0012B12BF00204FF480504FF45B
:1017D400C062216810430B6823F0805323F4B05394
:1017E40003430B604B6823F440534B60237B2BB1C2
:1017F40073681A68936843F4407393603046396899
:1018040001F043FA237D23B12268936843F008036F
:101814009360637D23B12268536843F400435360AB
:10182400A37D23B12268536843F480335360E37D7E
:1018340023B12268536843F4003353602268136869
:1018440043F0010313602368DA699102FCD5DA6975
:101854005202FCD5284603B0F0BD4FF480504FF43B
:101864008062B6E76FF01205F4E700BF203000088D
:101874002DE9F0410B790C46012B4568066900F00F
:10188400AA809A1E51425141890294F805C094F8E5
:101894000680BCF1020F96BF754A4FF4005732F828
:1018A4001C70B8F1020FE27900F09880B8F1040FCF
:1018B40000F0BD80002B40F09E80012A2CF0020C29
:1018C40040F0C680BCF1000F00F0B180B8F1010F08
:1018D40040F2AD804FF4407ED5F800C082B3DFF80B
:1018E4009481C4452AD008F18058C44526D0DFF835
:1018F4008881C44522D008F18058C4451ED0DFF841
:101904007C81C4451AD008F18058C44516D0DFF84C
:101914007081C44512D008F18058C4450ED0DFF858
:101924006481C4450AD0BCF1502F07D0DFF8588138
:10193400C44503D008F18058C44578D1012A76D132
:10194400DCF8002022F00102CCF800204268D2F832
:1019540000C0DCF8002002F4C06291421FBFDCF832
:10196400002022F4C0620A43CCF8002042681168C7
:101974004A6802F4405297421FBF4A6822F4405218
:101984003A434A60426811680A6802F010229A4297
:101994001FBF0A6822F0102213430B6043681A68C1
:1019A400936803F440739E451FBF936823F4407308
:1019B40043EA0E03936021683368994203D001F02F
:1019C40064F92368336000202A68136843F0010334
:1019D4001360BDE8F0814FF4C06156E70BBB012AE8
:1019E4002CF0020C2FD1BCF1000F20D04FF4407E1C
:1019F4004FF0805370E7033B012ADBB20CD1012B7B
:101A040015D94FF4407E1CF0FD0F10D0B8F1010F32
:101A14000DD94FF480535FE7012B08D94FF0000E26
:101A2400F1E7033B012ADBB204D0012B19D86FF094
:101A34008500CEE7012BFAD91CF0FD0FF7D04FF447
:101A4400407E002348E7BCF1000FF0D09E46CFE76C
:101A5400BCF1000FEBD0B8F1010FE8D99E467346F4
:101A64003AE71CF0FD0FE2D04FF0000EF7E700BF9D
:101A7400B4370008003801400044004000480040EA
:101A8400004C004000500040002400464FF0E0238A
:101A940010B59A691969986911F4803F084B09498E
:101AA40001D1824206D21A680C6822441A604FF0AF
:101AB400E02212691B680A681344181A10BD00BF9B
:101AC400700200207C0200201022094B002083F8C1
:101AD400232043F67F62074B1A60074B18604FF0D0
:101AE400E0235A6198611A6942F007021A6170474B
:101AF40000ED00E07C0200207002002008B5FFF732
:101B0400C5FF0C4B0C4A1868116808441060002289
:101B14004FF47A511A60094A1368C01AB0FBF1F005
:101B240001FB0033136000F073FDBDE80840FFF7CC
:101B3400E3B900BF70020020780200207402002084
:101B44002DE9F041324E002952D0421C0AD14FF007
:101B5400E022136923F0010313614FF07F433360E4
:101B6400BDE8F0813468012848DDB0F5836F48DAB8
:101B740000F1FF384FF01003EFF3118583F312885F
:101B8400BFF36F8FFFF782FF4FF0E023002221495C
:101B94009F690B681844204B1A60204B1B68C21ABB
:101BA40032D44FF47A5C0CFB082202F579523F32AE
:101BB400B2FBFCF21B1A0CFB0233B3F5806F23D982
:101BC400174A934228BF13464FF0E0223360013B8B
:101BD400966953610023B742A7EB060738BF3F1944
:101BE40038449361086085F31188BFF36F8FB7E7BA
:101BF400431C3468B7D140F21740B9E74FF00008EE
:101C0400B8E740F21748B5E74FF48063DCE700BF5C
:101C14007C02002078020020700200207402002060
:101C2400809DFF0010B54FF01003EFF3118483F390
:101C34001288BFF36F8FFFF729FF074B074A1B6812
:101C440012689B1A034484F31188BFF36F8F4FF417
:101C54007A50B3FBF0F010BD78020020740200202B
:101C64002DE9F047044600251F4F00EBC106B4429E
:101C740001D1002014E02268D10602F01F0911D41A
:101C8400656845F02005C2F3471AC2F343220A2AC5
:101C940027D857F82280B8F1000F11D16FF0120045
:101CA400BDE8F087B9F1100F08D0B9F1110FEAD1EE
:101CB40065682B05E7D545F01005E4E73025E2E734
:101CC400404601F095F80028E8D04B462A464046A5
:101CD4000AF00F0100F09AFF002804F10804C6DAA4
:101CE400DEE76FF01500DBE730370008A8B1304BB2
:101CF400DA6802F44032B2F5403F10D12D4B9842DD
:101D040051D92D4B984250D92C4B984235D92C4B54
:101D1400984216D92B4B984231D901207047DA6882
:101D240002F44032B2F5003F0DD1274B98423AD924
:101D3400264B984239D9264B98421ED9254B9842B6
:101D4400EBD803201CE0DB6803F44033B3F5803F99
:101D54000AD1214B984226D91B4B984225D91F4BB7
:101D640098420AD9194BEAE71D4B98421BD91D4BDF
:101D740098421AD91C4B9842CFD8022000E0042084
:101D84001A4A136823F00F0303431360136803F024
:101D94000F0398420EBF0346136803F00F03C01AE3
:101DA40018BF012070470020EAE70120E8E700BFE0
:101DB400000802460048E8010090D00300D8B805A6
:101DC4000020A1070068890940787D0180F0FA02AB
:101DD400C068780400E1F50520BCBE0060343C0214
:101DE40000127A000024F40000366E010020024044
:101DF4000F4B70B553F82040013053F82060A642D1
:101E040000D870BDD4E90035284698476DB138B183
:101E14000028B8BF4042FF28A8BFFF20EB68187015
:101E2400EA68537843F0010353700834E7E700BFCE
:101E34009C370008012208B5094B02201A70FFF7ED
:101E4400D7FF00F041FC0320FFF7D2FF00F0D4F8E5
:101E5400FEF756FB034A137B23F00103137308BDFB
:101E6400B4020020E800002008B50348034A00211A
:101E7400121A00F0EEFF08BD78000020B80200201E
:101E8400702370B5134E012203FB0066002386B055
:101E9400CDE904230F220193CDE9023218234FF434
:101EA400A0720D4D0D4903FB0055044602FB0011C1
:101EB4000B4B3046009500F075F8737B2C7523F0BE
:101EC40004037373074B013403EBC423EE606B60AC
:101ED40006B070BD7800002080020020B80A0020FF
:101EE4005F2E0008B802002080B5274BA2B083F310
:101EF40008880024F023254D254E85F82230EC7700
:101F04002C766C76AC7685F820406B6A214F43F4CE
:101F1400E0236B62FFF7E2F8FEF7FEFE4FF0FF33BB
:101F2400AB62EB6240F20113ADF8243006ABB36050
:101F34001F9400F05CFF2046FFF75AFF0120164D66
:101F4400FFF756FF00F00CFA144BB561059301231B
:101F540013494FF48062CDE9034328463B46CDE95B
:101F64000144009400F01EF806466A7B284622F0DD
:101F740004026A7300F0B1FF2046FFF781FF3A467E
:101F840031462846FEF792FFB80A002000ED00E033
:101F940080020020391E0008E8000020C93800082B
:101FA400F80B00207FB50C9E00F15805067304263B
:101FB400C0E9165500250446467307320B9E22F0ED
:101FC400070286738E180A9AC0E906558560C573A0
:101FD4000292099A0192089A00923246FEF74AFF49
:101FE400044B65659B6803B15B6E3046636604B061
:101FF40070BD00BF80020020F0B5224C224D87B096
:102004002646AE4204F130040BD300F079F90A26D7
:102014001C4C1E4FAC4220D307B0BDE8F04000F08A
:1020240083B954F8043C059354F8103C049354F8D1
:10203400143C039354F8183C029354F81C3C019349
:1020440054F8203C009354E90A2354E90C01FFF7A7
:10205400A9FF54F8303C5E65D2E7626A531C09D08C
:1020640022EAE27282FB062352EA0301206803D1CA
:1020740000F028F93034CDE73946183000F04AFA38
:10208400F8E700BF74000020740000209B2E0008B5
:1020940038B5074D2C6854B1FFF7C4FD054B044413
:1020A4001C6128680021BDE8384000F052BF38BDEB
:1020B400AC0200208002002038B50D4D2B4653F8A9
:1020C4001C4F9C4200D004B9EC68AB6838B95A7B09
:1020D400D20604D1A26912B9DA897F2A05D89C42B2
:1020E40002D02046FFF7D4FF2346AB6138BD00BFC2
:1020F4008002002070B590F90D200146002A437B30
:1021040004DA03F07F03437300F0B3FE154A4B7BFC
:10211400104663F07F034B7350F81C3F146A8342EC
:1021240008BF002323B9C1E90004216011620CE057
:1021340091F90E5093F90E60B5420ED0AE420CDD0B
:102144005868C1E90030016059609068BDE870408A
:10215400431A58425841FFF7AFBF9C42E3D01B6873
:10216400E0E700BF8002002070B490F90D30427B9C
:10217400002B29DBD30627D183692BBB134962F0DB
:102184007F0242730A4652F81C4F944218BF2346FA
:102194000C6A23B9C0E90024206008620CE090F9BD
:1021A4000E5093F90E60B5420AD0AE4208DD5A686B
:1021B400C0E9003210605860002070BCFFF77CBF9B
:1021C400A342E7D01B68E4E770BC7047800200209C
:1021D40010B54FF01003EFF3118483F31288BFF3AB
:1021E4006F8F0A23002800FB03F302DD022BB8BF24
:1021F40002230020064A106106480360064B9068DB
:102204001960FFF745FF84F31188BFF36F8F10BD8A
:1022140080020020AC020020A802002038B54FF054
:102224001003EFF3118583F31288BFF36F8F174BFD
:10223400174A9C6811688C4207D12046FFF728FF93
:1022440085F31188BFF36F8F38BD00211160114AE7
:102254001268C2B1E2897F2A15D8627BD20612D1F4
:102264000D4A94F90E10126891420CDB0B4A944209
:1022740009D01A69824203DC2046FFF73BFFDCE702
:10228400121A1A61DCE70022FBE700BF800200207B
:10229400A4020020AC020020A80200207800002044
:1022A40049B9EFF3058030B9054B9A699B689A42A6
:1022B40001D0FEF791BD81F31188BFF36F8F704792
:1022C4008002002010B54FF01002EFF3118482F366
:1022D4001288BFF36F8F427B510704D484F31188B3
:1022E400BFF36F8F10BD22F004024273FFF73CFF6F
:1022F4002146BDE810400148FFF7D2BFB5020020D7
:102304004FF01003EFF3118183F31288BFF36F8F43
:10231400044B9A68D37B013BD37381F31188BFF3D9
:102324006F8F70478002002010B54FF01003EFF359
:10233400118483F31288BFF36F8F084B00209A68CF
:10234400D37B0133D373FFF7B7FE84F31188BFF354
:102354006F8FBDE8104000F0DCBD00BF800200209C
:102364000021044B084603F11C02C3E90722FFF7CE
:102374002FBF00BF80020020014B9868704700BF48
:10238400800200202DE9F04104464FF01003EFF3E2
:10239400118683F31288BFF36F8F037BD9070BD5A4
:1023A40086F31188BFF36F8F404080F311884FF09C
:1023B400040002DFBDE8F081437B1A0704D586F3ED
:1023C4001188BFF36F8FF5E723F0200242F0080174
:1023D400D20920D14173A36813B1204600F051FD06
:1023E40004F1180000F09FFD4FF0000804F15807B5
:1023F400A56DBD4200D0B5B90120FFF75DFE104BBD
:102404009B68A342DBD1EFF30583002BD7D1304681
:10241400FEF7E2FCD3E703F05F0343F008034373E2
:1024240000F027FDD7E7284600F02BFD05F1180042
:1024340000F079FD2846C5F86C80FFF795FED7E7D4
:102444008002002008B50648064A0749121A00F01F
:1024540002FDBDE80840054A0549064800F0FBBCFA
:10246400000000207400002014390008000000005F
:102474001439000800000020034B1B680BB9FFF758
:10248400D1BB0020704700BFB002002010B5114B33
:102494001C689C420AD1FFF7EFFF6FF000400E4B1F
:1024A4001B6913B19842A8BF184610BDFFF7E4FF9B
:1024B400002CF2D0D4E904321B1A62EBE072B3F1BF
:1024C400004F72F10001E8DA002AACBF1846002080
:1024D400E5E700BF380000208002002030B570B16D
:1024E4000B4B5B6898420AD0036843B1D3E90421DB
:1024F400D0E90445121941EB0501C3E90421D0E9EF
:10250400003213605A600023C0E9003330BD00BFBD
:1025140038000020B3F1FF3F08BFB2F1FF3FF8B528
:1025240004461D46164661D081604FF01003EFF358
:10253400118783F31288BFF36F8F013275F1FF3374
:1025440024DA6FF001032F49D1E900209B1A4FF0E0
:10255400FF3262EB00009E1B60EB0500012E70F160
:10256400000301DA01260020C4E90460264ED6F8EF
:1025740000C07568B44508BF4FF0000CBCF1000FF3
:102584000DD1C4E900652C6074601CE0FFF774FF92
:10259400013645F10005361845EBE070E4E7DCE967
:1025A4000420D4E90431934271EB000E1FDAD21AED
:1025B400DCF8043060EB0100CCE90420C4E900C37A
:1025C4001C60CCF804403368B3420BD09C4209D160
:1025D400FFF75CFF18B10D4B1B69834202D0002149
:1025E400FFF7AEFA87F31188BFF36F8FF8BD9B1A1C
:1025F40061EB0001AC45C4E90431C2D0DCF800C091
:10260400BCE700BF580100203800002080020020F1
:102614002DE9F8430446FFF701FE4FF01003EFF3F2
:10262400118683F31288BFF36F8F244FDFF89080F5
:10263400D8F80000234A40453C604FEAE471D2E9EF
:10264400003E0BD050B1D0E9045CAC4271EB0C09F4
:1026540017DA2D1B6CEB010CC0E9045CE3184FF096
:1026640000044EEB0101C2E900313C60FFF70EFFAC
:102674002146FFF765FA86F31188BFF36F8FBDE833
:10268400F883EB184EEBE571C2E900310022002318
:10269400C0E90423FFF722FF86F31188BFF36F8F8D
:1026A400836898474FF01003EFF3118683F3128881
:1026B400BFF36F8F3C68641BBAE700BFB002002011
:1026C4003800002058010020024A0349034800F062
:1026D4000AB800BF10390008CE380008EA380008EC
:1026E4007047002070470FB407B504A951F8040BD4
:1026F4000191FDF719FF03B05DF804EB04B07047D6
:10270400044608B5084611461A46A047FFF734FEAA
:10271400FEF718FD2DE9F84F9A46D37880466F2BC3
:102724000F461546A3F1410B29D024D8582B0CBFD2
:1027340010260A26DDF82890324600234046394602
:10274400FDF776FD092AD4B21ED83034B045E4B280
:1027540077F1000709F8014D01D3D14511D82B7841
:102764009B0605D5082E15D1AB7843F00803AB7052
:102774004846BDE8F88F03F0F703702BD7E7082627
:10278400D8E780460F46D7E7BBF1190F94BF37341B
:102794005734DBE7102EEBD1AB7843F01003E6E7B8
:1027A4002DE9F0410746884615461E461446B442B4
:1027B40005D30EB1601B08E02378002BFAD0414604
:1027C40014F8010BB8470028F1DABDE8F08170472E
:1027D4000020704700F022BB0146006800F01EBBD9
:1027E40000210120FFF7F6BF08B5FEF7CDFABDE8DA
:1027F4000840FEF781BB034600201A5C02B970470B
:102804000130FAE7034600201A5C0AB1884200D17D
:1028140070470130F8E710B5431E0A44914200D1D5
:1028240010BD11F8014B03F8014FF7E70346C9B295
:102834000244934200D1704703F8011BF9E74FF0BB
:10284400FF307047002208B511460B20FEF786FAC8
:1028540000220C201146FEF781FA00220D201146B9
:10286400FEF77CFA00220E201146FEF777FA0022CA
:102874000F201146FEF772FA002210201146FEF7CF
:102884006DFA002211201146FEF768FA0022122088
:102894001146FEF763FA002213201146FEF75EFA92
:1028A400002214201146FEF759FA00221520114681
:1028B400FEF754FA002216201146FEF74FFA0022C2
:1028C40017201146FEF74AFA002218201146FEF797
:1028D40045FA002219201146FEF740FA00221A2078
:1028E4001146FEF73BFA002008BD026910210F20B3
:1028F400FEF744BC02690F210E20FEF73FBC0269BB
:102904000E210D20FEF73ABC02690D210C20FEF7C2
:1029140035BC02690C210B20FEF730BC02690B2187
:102924000A20FEF72BBC02690A210920FEF726BC07
:10293400026909210820FEF721BC02690821072049
:10294400FEF71CBC026907210620FEF717BC0269CA
:1029540006210520FEF712BC026905210420FEF7BA
:102964000DBC026904210320FEF708BC026903219F
:102974000220FEF703BC026902210120FEF7FEBB20
:10298400026901210020FEF7F9BB0B68A3F188025C
:10299400202A9FBF03F18C4303F503331A68496867
:1029A4009BBF00200A436FF085001A6070470B68D4
:1029B400A3F18802202A9FBF03F18C4303F503335C
:1029C4001A6849689BBF00208A436FF085001A602B
:1029D4007047436800205B681B690B60704743685D
:1029E4005B68586942400A4042405A61002070477F
:1029F400436800205B6899617047436800205B6806
:102A040099627047436800205A6853694B40536188
:102A1400704710B50369986848B1884213D1DC68DF
:102A24000868A142986000D1D860002008607AB993
:102A3400002010BD814206D108682060D868814218
:102A4400F3D1DC60F1E7044600680028F2D13AB122
:102A54009A680A60DA689960002AE9D1D960E7E7E0
:102A64006FF01500E5E7F0B5446801206768884019
:102A74001E46C2F3801327EA00078B403B4390FABB
:102A8400A0F7B7FA87F74FF0030E6360D4F808C0D5
:102A94007F000EFA07F72CEA070C90FAA0F7B7FAB2
:102AA40087F7C2F3C1137F00BB4043EA0C03A36062
:102AB40090FAA0F3B3FA83F3E7685B000EFA03F32A
:102AC40027EA030790FAA0F3B3FA83F302F0300580
:102AD4005B00C2F341229A403A43202DE26016D1B2
:102AE40007292BDC90FAA0F3226A2BB3B3FA83F301
:102AF4000F219B0001FA03F322EA030290FAA0F3E8
:102B0400B3FA83F39B0006FA03F31343236290FAA8
:102B1400A0F3B3FA83F390FAA0F00321B0FA80F0A3
:102B240022685B002D0901FA03F3400022EA030343
:102B340085401D432560F0BD2B46D9E7030A616A31
:102B440093FAA3F282B1B2FA82F293FAA3F30F27B3
:102B5400B3FA83F3920007FA02F29B0021EA02021D
:102B64009E4016436662D2E72A46EEE713469A036E
:102B740010B518D59C070FD55A072DD55022DC0661
:102B84000CD542F4007213F4002F446818D00123CA
:102B940064688B40A3610DE01022F0E79C06F2D537
:102BA40042F48062EFE7DC0311D5DA0611D4C3F3F3
:102BB40040139A0240680023FFF755FF002010BD20
:102BC4005B03F7D5012364688B40A362F2E73022EC
:102BD400F0E74FF40072EDE76FF08500EFE770B5B2
:102BE4000B46896821B101255E680C68854001B9EE
:102BF40070BD8A682A4002D030464B6898471CB1A1
:102C0400236821461C46F2E72346FAE7F8B51F4637
:102C1400044640680E461546FFF725FF112F08D1DC
:102C2400012303FA06F663682A055B684CBF9E61BC
:102C34009E620020F8BD43681A68D069D169C0F368
:102C4400C000C907D16948BF40F002008907D169B3
:102C540048BF40F00400C90542BF4FF4807140F002
:102C640008001162C20742BF08211A681162810775
:102C740042BF01211A681162420742BF02211A6849
:102C8400116204221B681A62704737B503694568EC
:102C940058680C4683686968DB688BB101AA984759
:102CA40000280DDB2A68136823F4004313602B68A3
:102CB40001992CB101EB5401B1FBF4F189B2D96053
:102CC40003B030BD10B540680268D3691B06FCD55B
:102CD4004FF01002EFF3118382F31288BFF36F8F6A
:102CE4000268D469240604D483F31188BFF36F8F78
:102CF400EAE7916283F31188BFF36F8F10BD4368D5
:102D04001A68D069000744BF082010621B68DA699A
:102D1400920643BF5B6A00200B704FF0FF30704790
:102D240003691B680B6043681B681B6803F4C0637A
:102D3400B3F5806F35D0A3F5C06CDCF1000343EB31
:102D44000C030B7143681B685B6803F44053B3F5D1
:102D5400805F28D0B3F5405F27D0002B0CBF012340
:102D640003234B7143681B681A681B6802F0102226
:102D7400B2F5805F03F4C06319D0B2F1805F1BD158
:102D8400002B14BF012302238B71436800201B68AE
:102D94009B6803F44073A3F5407253425341CB71D3
:102DA40070470223CDE70023DBE70223D9E7002B9A
:102DB40014BF03230423E7E7002B14BF02230323D8
:102DC400E2E770B56FF06046036813600579046844
:102DD400354404EBC504A34202D96FF0010070BD71
:102DE4005C798C4201D00833EFE70020F7E77047A5
:102DF40038B1C3681888C0F30800A0F5807358423E
:102E0400584170474FF01002EFF3118382F3128898
:102E1400BFF36F8FFEE708B5FFF7F4FFF8B505467B
:102E24000E464FF01003EFF3118783F31288BFF3BC
:102E34006F8FFFF7A1FA314604462846FFF7EBFFF0
:102E440087F31188BFF36F8F2046BDE8F840FEF783
:102E540079B9FFF7EBBCFFF7DEBC08B54FF0100201
:102E6400EFF3118382F31288BFF36F8FFDF75AFFDC
:102E7400F4E7D0E9003213605A600023C0E900335C
:102E8400704708B5FFF7F5FF437B23F00203437354
:102E94000023836008BD014610B54FF01003EFF323
:102EA400118483F31288BFF36F8F10F80B3C13F077
:102EB400280F0DD151F8103C18380BB1FFF7E1FF82
:102EC40011F80B3C23F0140301F80B3CFFF74CF909
:102ED40084F31188BFF36F8F10BD10B54FF010034A
:102EE400EFF3118483F31288BFF36F8FFFF73CF97C
:102EF40084F31188BFF36F8F10BD034620B9EFF33D
:102F040005820AB9FDF768BF83F31188BFF36F8F99
:102F140070474FF01003EFF3118083F31288BFF36F
:102F24006F8FFFF7EABF10B54FF01002EFF3118473
:102F340082F31288BFF36F8F03683BB1FFF7CEFAB9
:102F4400002084F31188BFF36F8F10BD6FF015005C
:102F5400F7E770B504460D464FF01003EFF3118602
:102F640083F31288BFF36F8FFFF790FA012807DD10
:102F7400A04205DBA0422946A8BF2046FEF7E0FD9B
:0C2F840086F31188BFF36F8F70BD000052
:082F9000D8D2FF7F0100000010
:102F9800AD0C000800000000D52700080000000064
:102FA800CD130008203000084928000838300008F0
:102FB80061160008503000086116000868300008E3
:102FC8006116000880300008611600089830000873
:102FD80061160008B030000861160008C830000803
:102FE80061160008E030000861160008F830000893
:102FF8006116000810310008611700082831000820
:103008006117000840310008111600080000000090
:08301800CD1A000800000000C1
:103020000E380008000000000800002044000020C6
:10303000000000009E350008E03700080000000096
:1030400000000000400000206001002098350008CA
:103050001B380008BC350008703600084800002006
:10306000E00100209035000829380008D03500081C
:10307000703600084C000020F00100208835000860
:1030800037380008E435000870360008500000208A
:10309000000200208035000845380008F835000897
:1030A0007036000854000020100200207835000817
:1030B000533800080C36000870360008580000200D
:1030C0002002002070350008613800082036000812
:1030D000703600085C0000203002002068350008CF
:1030E0006F38000834360008703600086000002091
:1030F00040020020603500087D380008483600088E
:103100007036000864000020500200205835000886
:103110008B3800085C360008703600086800002014
:1031200060020020503500089938000894360008E5
:103130001C3700086C0000202400002048350008DF
:10314000A9380008D83600081C3700087000002095
:083150002C00002040350008AE
:1031580000000000E527000800000000E52700083F
:1031680000000000E527000800000000E52700082F
:1031780000000000E527000800000000E52700081F
:1031880000000000E527000800000000E52700080F
:1031980000000000E527000800000000E5270008FF
:1031A80000000000E52700083830000885290008DD
:1031B800383000087B2900083830000871290008D9
:1031C8003830000867290008383000085D290008F1
:1031D8003830000853290008383000084929000809
:1031E800383000083F290008383000083529000821
:1031F800383000082B290008383000082129000839
:103208003830000817290008383000080D29000850
:10321800383000080329000838300008F928000869
:1032280038300008EF28000800000000E5270008F3
:1032380000000000E527000800000000E52700085E
:1032480000000000E527000800000000E52700084E
:1032580000000000E527000800000000E52700083E
:1032680000000000E527000800000000E52700082E
:1032780000000000E527000800000000E52700081E
:1032880000000000E527000800000000E52700080E
:1032980000000000E527000800000000E5270008FE
:1032A80000000000E527000800000000E5270008EE
:1032B80000000000E527000800000000E5270008DE
:1032C80000000000E527000800000000E5270008CE
:1032D80000000000E527000800000000E5270008BE
:1032E80000000000E527000800000000E5270008AE
:1032F80000000000E527000800000000E52700089E
:1033080000000000E527000800000000E52700088D
:1033180000000000E527000800000000E52700087D
:1033280000000000E527000800000000E52700086D
:1033380000000000E527000800000000E52700085D
:1033480000000000E527000800000000E52700084D
:1033580000000000E527000800000000E52700083D
:1033680000000000E527000800000000E52700082D
:1033780000000000E527000800000000E52700081D
:1033880000000000E527000800000000E52700080D
:1033980000000000E527000800000000E5270008FD
:1033A80000000000E527000800000000E5270008ED
:1033B80000000000E527000800000000E5270008DD
:1033C80000000000E527000800000000E5270008CD
:1033D80000000000E527000800000000E5270008BD
:1033E80000000000E527000800000000E5270008AD
:1033F80000000000E527000800000000E52700089D
:1034080000000000E527000800000000E52700088C
:1034180000000000E527000800000000E52700087C
:1034280000000000E527000800000000E52700086C
:1034380000000000E527000800000000E52700085C
:1034480000000000E527000800000000E52700084C
:1034580000000000E527000800000000E52700083C
:1034680000000000E527000800000000E52700082C
:1034780000000000E527000800000000E52700081C
:1034880000000000E527000800000000E52700080C
:1034980000000000E527000800000000E5270008FC
:1034A80000000000E527000800000000E5270008EC
:1034B80000000000E527000800000000E5270008DC
:1034C80000000000E527000800000000E5270008CC
:1034D80000000000E527000800000000E5270008BC
:1034E80000000000E527000800000000E5270008AC
:1034F80000000000E527000800000000E52700089C
:1035080000000000E527000800000000E52700088B
:1035180000000000E527000800000000E52700087B
:1035280000000000E527000800000000E52700086B
:0835380000000000E527000877
:10354000010000800080FF7F010000800080FF7F7D
:10355000010000800080FF7F010000800080FF7F6D
:10356000010000800080FF7F010000800080FF7F5D
:10357000010000800080FF7F010000800080FF7F4D
:10358000010000800080FF7F010000800080FF7F3D
:10359000010000800080FF7F00800080FF7F0080AE
:1035A0000080030004000500060007000800090071
:0A35B0000A000B000C000D00FF7F65
:0235BA00FFFF11
:1035BC00FFFF000000200242080000008C00000009
:1035CC0000010000FFFF0000001C02420700000089
:1035DC008C00000080000000FFFF00000018024279
:1035EC00060000008C00000040000000FFFF0000FF
:1035FC0000140242050000008C00000020000000B6
:10360C00FFFF000000100242040000008C000000CC
:10361C0010000000FFFF0000000C0242030000003D
:10362C008C00000008000000FFFF000000080242B0
:10363C00020000008C00000004000000FFFF0000EE
:10364C0000040242010000008C0000000200000097
:10365C00FFFF000000000242000000008C00000090
:10366C0001000000712B0008D7290008E32900088D
:10367C00F5290008FF290008092A00089D160008F2
:10368C00172A00080000000000480040B03600086F
:10369C00010000000000000000000000000000001D
:1036AC00B83600089C00000000000400C03600087A
:1036BC0001000000C83600080200000007070000E7
:1036CC000002000027070000000000000038014045
:1036DC00F4360008010000000000000000000000AB
:1036EC0000000000FC360008A400000000400000B0
:1036FC0004370008010000000C370008020000002D
:10370C00270100000002000047010000000000003B
:10371C00032D0008C92C00083B2C00087518000864
:10372C00252D000810310008F8300008E0300008A2
:10373C00C8300008B030000898300008803000080D
:10374C006830000850300008000000000000000045
:10375C00006CDC0200366E010024F400001BB70084
:10376C0000093D0080841E0060E3160040420F00FB
:10377C0000E02E000070170000A00F0000B80B0036
:10378C00801A0600400D0300F0490200A0860100DB
:10379C00982F00081830000820300008203000084E
:1037AC0020300008F5FFFFFF001000000030625FC2
:1037BC0075353835695F696F743032610048656CF6
:1037CC006C6F20576F726C64212025730A00286E71
:1037DC00696C2900696E746572727570742D636FF3
:1037EC006E74726F6C6C65724034363032323030BD
:1037FC0030000B0C0D0E0F10111213141516171898
:10380C00191A7263634034363032306330300067DB
:10381C0070696F403432303232303030006770694A
:10382C006F403432303231633030006770696F4032
:10383C003432303231383030006770696F40343296
:10384C00303231343030006770696F40343230328E
:10385C0031303030006770696F4034323032306351
:10386C003030006770696F4034323032303830306D
:10387C00006770696F40343230323034303000675A
:10388C0070696F40343230323030303000736572D2
:10389C0069616C40343030303438303000736572CC
:1038AC0069616C4034303031333830300000000006
:1038BC00000000000001020304060708096D61699D
:1038CC006E0076332E322E302D7263332D39332D1C
:1038DC0067653437376437303639343361002A2A18
:1038EC002A20426F6F74696E67205A65706879720E
:1038FC00204F53206275696C64202573202573203A
:08390C002A2A2A0A000000002B
:10391400E7260008432800088F290008B329000877
:103924000000000015130008000000000000000063
:103934009D12000800C201000000000000C2010046
:103944000000000000093D0038000020380000207D
:103954000000000000000000000000000000000063
:103964000000000000000000000000000000000053
:103974000000000000000000000000000000000043
:04398400000000003F
:040000050800111DC1
:00000001FF
