:020000040807EB
:1040000000000000000000000000000000000000B0
:1040100000000000000000000000000000000000A0
:104020000000000000000000000000000000000090
:104030000000000000000000000000000000000080
:10440000301C00201D56070871520708F155070897
:10441000F1550708F1550708F1550708F155070848
:1044200000000000000000000000000049530708E1
:10443000F155070800000000F9520708A5600708B9
:10444000C9530708C9530708C9530708C9530708C0
:10445000C9530708C9530708C9530708C9530708B0
:10446000C9530708C9530708C9530708C9530708A0
:10447000C9530708C9530708C9530708C953070890
:10448000C9530708C9530708C9530708C953070880
:10449000C9530708C9530708C9530708C953070870
:1044A000C9530708C9530708C9530708C953070860
:1044B000C9530708C9530708C9530708C953070850
:1044C000C9530708C9530708C9530708C953070840
:1044D000C9530708C9530708C9530708C953070830
:1044E000C9530708C9530708C9530708C953070820
:1044F000C9530708C9530708C9530708C953070810
:10450000C9530708C9530708C9530708C9530708FF
:10451000C9530708C9530708C9530708C9530708EF
:10452000C9530708C9530708C9530708C9530708DF
:10453000C9530708C9530708C9530708C9530708CF
:10454000C9530708C9530708C9530708C9530708BF
:10455000C9530708C9530708C9530708C9530708AF
:10456000C9530708C9530708C9530708C95307089F
:10457000C9530708C9530708C9530708C95307088F
:10458000C9530708C9530708C9530708C95307087F
:10459000C9530708C9530708C9530708C95307086F
:1045A000C9530708C9530708C9530708C95307085F
:1045B000C9530708C9530708C9530708C95307084F
:1045C000C9530708C9530708C9530708C95307083F
:1045D000C9530708C9530708C9530708C95307082F
:1045E000C9530708C9530708C9530708C95307081F
:1045F000C9530708C9530708C9530708C95307080F
:10460000C9530708C9530708C9530708C9530708FE
:10461000C9530708C9530708C9530708C9530708EE
:10462000C9530708C9530708C9530708C9530708DE
:04463000C95307085B
:1046340053B94AB9002908BF00281CBF4FF0FF3105
:104644004FF0FF3000F00CB8ADF1080C6DE904CE6A
:1046540000F008F8DDF804E0DDE9022304B0704757
:10466400704700BF2DE9F04786468C460846089EF1
:10467400154674461946002B40F0C1808542B2FAB3
:1046840082F245D94AB1C2F1200300FA02FC9540F6
:1046940094402EFA03F343EA0C0C4FEA154EA8B2E9
:1046A400230CBCFBFEF80EFB18CC08FB00F943EA14
:1046B4000C43994528D9EB1808F1FF3704D29945E2
:1046C40002D9A8F102072B44A3EB0903A4B2B3FB5C
:1046D400FEFC0EFB1C330CFB00F044EA0344A04236
:1046E40014D92C190CF1FF3304D2A04202D9ACF135
:1046F40002032C44241A43EA07401EB1D440002389
:1047040034607360BDE8F0874746DDE76346F1E750
:1047140092BB431B01214FEA154EAFB2200CB3FBF1
:10472400FEFC0EFB1C330CFB07F840EA03439845E0
:1047340061D9EB180CF1FF3004D2984502D9ACF1E1
:1047440002002B44A3EB0803A4B2B3FBFEFC0EFB54
:104754001C330CFB07F744EA0344A7424DD92C1938
:104764000CF1FF3304D2A74202D9ACF102032C446A
:10477400E41B43EA0040C0E7C2F1200395409440A3
:1047840020FA03F12EFA03F34FEA154E9040AFB22C
:104794000343B1FBFEFC0EFB1C10190C0CFB07F8C9
:1047A40041EA0041884522D969180CF1FF3004D24E
:1047B400884502D9ACF102002944A1EB08019BB25F
:1047C400B1FBFEFC0EFB1C110CFB07F743EA014393
:1047D4009F420ED9EB180CF1FF3104D29F4202D94B
:1047E400ACF102012B44DB1B41EA004193E7604634
:1047F400E3E76146F7E76046A4E76346B8E7834228
:1048040006D916B9002108467CE7C6E900E0F9E7B5
:10481400B3FA83F78FB9834201D3724508D8BEEB4C
:10482400020460EB030301209C461EB9002169E7E2
:104834003846FAE7C6E9004CF8E7C7F1200CBB405C
:104844000EFA07F522FA0CF42EFA0CF1BA401C43C6
:1048540020FA0CF3B8404FEA144901431FFA84FECE
:10486400B3FBF9F809FB18300B0C08FB0EFA43EA0A
:1048740000439A4540D9E31808F1FF3004D29A4521
:1048840002D9A8F102002344A3EB0A0389B2B3FBC3
:10489400F9F809FB183308FB0EFE41EA03418E4583
:1048A4002CD9611808F1FF3304D28E4502D9A8F13E
:1048B4000203214443EA0040A1EB0E01A0FB02984D
:1048C4004145CE46434602D306D14D4504D2013874
:1048D400B9EB020E68EB0403002EA7D0B5EB0E0271
:1048E40061EB030101FA0CFC22FA07F3F9404CEAEC
:1048F4000303C6E9003199E74046C5E74346D9E7D3
:1049040010B501F07BFD40F201139842014627D116
:10491400194802F084FC802001F07EFD014618BB9A
:10492400164802F07CFC164802F079FC0121402074
:1049340001F09CFD041E1BDD124802F070FC2046B1
:1049440001F0A2FD1049114802F069FC41F28830DF
:10495400002102F067FABDE81040002003F0C1B85E
:104964000B4802F05CFCD6E70A4802F058FCDDE78D
:10497400094802F054FCE5E7A28507080386070806
:104984003486070868860708A7860708B6860708D6
:10499400CF8507084E8607087A860708014B1B68EF
:1049A400184700BF00000020014B1860704700BF8B
:1049B4000000002007B50B46002102460091034881
:1049C40000F006F803B05DF804FB00BFA149070836
:1049D4002DE9F04F81468B4617461C46002595B0BD
:1049E400387808B9284657E37B1C2528039306D05A
:1049F4005946C8470028C0F24F830135FBE118220D
:104A040000210EA802F083FD7B78252B7DD00023A6
:104A140098469E469C461E46781C014610F8012B7B
:104A24002B2A00F0A18000F29880202A00F09F80B9
:104A3400232A00F09F802BB19DF8403043F04003BF
:104A44008DF84030B8F1000F05D09DF8403043F0A8
:104A540020038DF84030BEF1000F05D09DF84030A2
:104A640043F010038DF84030BCF1000F05D09DF8E1
:104A7400403043F008038DF840302EB19DF84030AB
:104A840043F004038DF840309DF8403003F04400B7
:104A9400442803D16FF386138DF840309DF84030DD
:104AA4002A2A43F080038DF840307FD19DF84120BD
:104AB4004B1C42F001028DF841201A782E2A0CBFBB
:104AC400012100219DF8412061F341028DF841202C
:104AD40078D15A782A2A6ED000224FF00A0C01337A
:104AE400194611F8010BA0F13006092E40F2958009
:104AF4009DF840101292C1F3400040EAD2700A4679
:104B040060F341028DF840205CE0BA1C03928DF8FA
:104B140043309DF84130DA0740F12E8154F8048B7C
:104B2400B8F1000F07DA9DF84020C8F1000842F000
:104B340004028DF840205E0740F1278154F804AB4D
:104B4400BAF1000F80F226819DF841306FF34103E2
:104B54008DF841304FF0FF3A1CE12D2A0DD0302A58
:104B64007FF469AF012358E74FF0010C55E74FF08C
:104B7400010E52E74FF001084FE701264DE70346C7
:104B84000EFB0262303A184610F8016BA6F1300CA5
:104B9400BCF1090FF3D999428FD09DF840101192BE
:104BA400D20F62F341018DF8401086E70B460022D4
:104BB4004FF00A0EE7E79DF84120023342F0040269
:104BC4008DF841201A786C2A47D02BD8682A31D026
:104BD4006A2A4BD04C2A51D01A4612F8013B782B42
:104BE40003928DF843309DF8412000F2BE806D2B76
:104BF40051D8692B00F2B980572B67D8412B03D0C9
:104C0400453B022B00F2B18004229DF8423062F34E
:104C140002038DF84230012373E00CFB02020B46C1
:104C2400303A5DE7742A25D07A2AD5D106219DF839
:104C340041200CE05A78682A9DF8412006D10121D0
:104C440061F3C6028DF841200233C5E7022161F306
:104C5400C6028DF841200133BEE75A786C2A9DF8CC
:104C6400412001D10421EBE70321F0E705219DF860
:104C74004120ECE707219DF84120E8E7BDF84020FA
:104C840022F4F04222F0020242F4804242F0020294
:104C9400ADF84020DFE76E3BD9B201238B4040F2F0
:104CA40082410B4237D113F0240F51D1D8075CD580
:104CB40003219DF8423061F302038DF8423002F083
:104CC4007803A3F140014B424B411AE00120A3F1C8
:104CD4005801C9B200FA01F111F4624F94D140F6BF
:104CE400010631421DD111F4043F3ED09DF84230FB
:104CF40060F3020302F07802402A8DF8423034D087
:104D040000239DF84020C2F340010B4363F34102AA
:104D14008DF84020FDE602219DF8423061F3020344
:104D2400E8E702209DF8421002F0780260F30201E5
:104D3400402A8DF8421002BF9DF8401041F0010155
:104D44008DF84010632BDBD1131E18BF0123D8E765
:104D540003219DF8423012F0780F61F302038DF8BD
:104D6400423014BF01230023CBE79DF8403043F0C9
:104D740001038DF84030C3E79DF94020002AACBF01
:104D84004FF0FF38DDF84480D5E698077FF5E2AEB2
:104D9400DDF848A00023CDE911339DF842309DF899
:104DA400411003F00703012BC1F3C30133D1CB1E20
:104DB400042B04D8DFE803F02146462121002368B0
:104DC40001294FEAE372CDE90E321CD19DF9383046
:104DD400DA17CDE90E3204349DF8403013F003069F
:104DE40050D03A4659464846039B02F04FFB0028F0
:104DF400C0F252810544039FF2E554F8043BDA17EC
:104E0400CDE90E32E8E70229E5D11AB243F3C03303
:104E1400CDE90E23DFE7022B24D1CB1E042B04D8CB
:104E2400DFE803F018101018180001294FF00002F1
:104E340054F8043B14D00229CDE90E32CCD19BB2F4
:104E44000E93C9E7073424F00704F4E80223CDE9FC
:104E54000E23C1E754F8043B0E9300230F93BBE7E2
:104E6400DBB2CDE7042B08D1073424F00704D4E9DE
:104E740000230834CDE90E23AEE7032BACD154F85C
:104E8400043BDDE79DF843007828B4D862281CD899
:104E940025283FF4ADAD5828ADD1DDE90E010DF163
:104EA4003603009310AA08AB02F0AAFABAF1000F75
:104EB400074680F29980002F9DD00DF13603D81B50
:104EC400002E00F0C0800130BDE06338152892D870
:104ED40001A252F820F000BFB14F0708C34F0708E2
:104EE400FB4D0708FB4D0708FB4D0708FB4D070862
:104EF400C34F0708FB4D0708FB4D0708FB4D070888
:104F0400FB4D07084F500708E74F07080D500708E7
:104F1400FB4D0708FB4D0708354F0708FB4D0708F5
:104F2400E74F0708FB4D0708FB4D0708E74F070845
:104F3400BAF1000F0E9F35DB5146384602F0D3FA22
:104F440007EB000A002F3FF456AF00269DF84230CD
:104F540013F01002059200F0928002305B06119A61
:104F640048BF129B104448BFC018B8F1000F049208
:104F740040F39F809DF84020A8EB0008C2F3800313
:104F84005007069300F19580510640F188803EB1A8
:104F940059463046C84700287EDB069B01351E462D
:104FA40030227DE0384602F097FAC9E70E9B0026CE
:104FB40001208DF8203008AF0DF1210AC6E719074A
:104FC4005ABFC3F300135E012B26DDE90E23002B29
:104FD400BFF663AF524263EB43032D26CDE90E23A4
:104FE4005BE7002659E700269DF840200DF13603C3
:104FF400DB1B6FF386129A458DF840207FF65BAF7A
:10500400AAEB0303119356E70E9890B30DF1360300
:105014000093002108AB10AA02F0F2F9BDF8423067
:10502400BAF1000F03F0EF0343F4F04343F010032D
:105034000746ADF84230D6DA00283FF4DCAE00264D
:105044000DF13603181A9A4680E70E9B07293FF69E
:10505400D2AEDFE801F00C04060C08080C0C1D703D
:10506400C9E61D80C7E6EA17C3E90052C3E61D601E
:10507400C1E62F4F064607F1050A052066E71A0721
:1050840048BF01306AE71046079306925946C8475D
:10509400DDE90623002804DA15B0BDE8F08F2022EC
:1050A40043461946002903F1FF33ECDC4544984696
:1050B4006D1A2EB159463046C8470028ECDB01353D
:1050C4009DF84230DA0601D41B0705D55946302035
:1050D400C8470028E0DB0135059B33B159469DF8EC
:1050E4004300C8470028D7DB0135049E2E4405E061
:1050F40059463020C8470028CEDB0135731B002BEE
:10510400F6DC53463A465946484602F0BFF90028B1
:10511400C2DB0544A844A8EB0503002B7FF76BAE64
:1051240059462020C8470028B6DB0135F3E700BF05
:10513400C6860708044608B54FF01002EFF3118342
:1051440082F31288BFF36F8F02F0ACFC204602F0AA
:10515400C8FC034802F063F800F044F8FCE700BF21
:10516400CC86070813B54FF01003EFF3118483F3D3
:105174001288BFF36F8F00F071F884F31188BFF3C6
:105184006F8F00200F4B1A6822F004021A601A680D
:1051940042F001021A600C4B0C4A1A600C4BD3F813
:1051A400942042F00402C3F89420D3F89430094ABE
:1051B40003F004030193019BD36A43F00103D36218
:1051C40002B010BD000403403800002000093D0077
:1051D400000C024600080246014910220A6070478A
:1051E40010ED00E072B6404080F31188BFF36F8F7A
:1051F400BFF34F8F30BF62B6BFF36F8F704700BFEE
:1052040040B2002807DB01234109034A00F01F00D4
:10521400834042F82130704700E100E040B20028AA
:1052240001F10101ACBF00F16040064B4FEA0111EE
:10523400C9B2ABBF00F5614000F00F0080F8001365
:105244001954704714ED00E0034808B501F0E7FF76
:105254000020FFF76FFF00BFF5860708014B024AE5
:105264001A607047040000204D52070808B5034B2C
:105274001B689847BDE8084000F0B8B80400002057
:1052840030BFFFF7FDBF00BF0B4A08B50B4B22F040
:105294007F029A60BFF34F8FBFF36F8FD3F88820DC
:1052A40022F47002C3F8882001F038F901F034FECA
:1052B40000F0A6F901F072F90044070800ED00E0DF
:1052C400094A0A49936809689866D96608494B6887
:1052D40043F080534B60002383F31188BFF36F8F37
:1052E4009368D86E704700BFB802002098850708FD
:1052F40000ED00E011498A6882F871E04FF0300057
:105304001044EFF3098C80E8F01F102080F312881A
:10531400BFF36F8F0A4F4FF000668A698A603E6060
:1053240092F971E0906E0023936680F3118802F184
:10533400300090E8F01F8CF309887047B802002011
:1053440004ED00E01EF0040F0CBFEFF30880EFF350
:105354000980816911F8021C0229FFD001B502F00D
:10536400B1F801BD42F8203C009B0C4942F81C3CBA
:10537400019B21F0010142F8183C029B42F8081CF1
:1053840042F8143C4FF0807342F8043C00238366D7
:105394004FF43C43203A0265036770473D720708A7
:1053A400074B9860104681F30988002163B681F3A6
:1053B4001188BFF36F8F0022002301F03DFF00BF6F
:1053C400B802002001B5EFF30580A0F110004FEA08
:1053D400C0000449014409C99847BDE80140024995
:1053E40008470000407F0708F1530708044B9968F9
:1053F4009869884203D003494FF080520A6070478D
:10540400B802002004ED00E0074B00209A6A9A6A73
:105414009A6A9A6A9A6A9A6A9A6A9A6A6FEA0242D3
:105424006FEA12429A62704700ED00E00D4B9A6AEF
:105434009A6A9A6A920508D59A6B9A6A120404D5F4
:1054440018B19A6A22F400429A6200209A6A9A6A0F
:10545400D205044A58BF9B6A936A43F47F4393621C
:105464000870704700ED00E0124B9A6A9A6A9A6AD3
:10547400920708D55A6B9A6A120604D518B19A6A2B
:1054840022F080029A629A6A9A6A9A6AD0064FF067
:10549400000058BF9B6A074B9A6A920642BF5A6A39
:1054A40022F400525A629A6A42F0FF029A62087029
:1054B400704700BF00ED00E070B5474B05465B68E0
:1054C40000268AB0C3F3080386F31188BFF36F8FF5
:1054D40002F07F40B0F17F4F16D1D00714D45406A8
:1054E40003D4100704D4012604E012F0040200D00F
:1054F4000D4600260022033B8DF80720032B05D818
:10550400DFE803F01E5C60593546F3E700249DF89C
:1055140007309BB92022294602A801F0EDFF099B20
:10552400002E53D0C3F3080222B96FEA53236FEA63
:1055340043230993204602A901F0C2FF0AB070BDBB
:10554400254BDA6A9107E1D4DA6A002ADEDBDA6AEB
:105554005200DBD55A69A96942F480725A61BFF3DB
:105564004F8FBFF36F8F5A6931F8021C22F4807297
:105574005A61BFF34F8FBFF36F8F4DF602729142A2
:1055840001D12C68C3E79A6AD2B232B101200DF17D
:105594000701FFF769FF0446B9E79A6A12F47F4FDF
:1055A40005D001200DF10701FFF740FFF3E79B6AE7
:1055B400B3F5803FAAD3FFF727FFECE700200DF1F6
:1055C4000701E6E700200DF10701EDE723F4FF737F
:1055D40023F00103ADE700BF00ED00E0024A536988
:1055E40043F010035361704700ED00E0EFF30880CF
:1055F400EFF3098101B57246FFF75EFF01BD00BFFD
:10560400002310210348C21801337D2B82F80013B4
:10561400F9D1704700E100E0002080F31488BFF363
:105624006F8F002080F30A8880F30B8800200E49D6
:105634000860BFF34F8F0D4880F3088800F02CF802
:10564400102080F311880A484FF40061401880F359
:105654000988EFF314800221084380F31488BFF310
:105664006F8FFFF711FE000094ED00E0301C002066
:10567400F0020020002318460649D1F89020C2F316
:105684000722934200DB7047C1F89830C1F8A000AC
:105694000133F6E700ED00E010B572B6002484F3A0
:1056A4001388FFF7E7FF23464FF0FF300C4A03F15E
:1056B40020010133102B42F82100F8D100234FF0D0
:1056C400FF30074A03F160010133102B42F8210037
:1056D400F8D162B6BFF34F8FBFF36F8F10BD00BF19
:1056E40000E100E0084B9B6883420BD1EFF3058394
:1056F40043B1064B5A6842F080525A605A6A22F407
:1057040000425A6201F0A8BBB802002000ED00E09C
:10571400014B1860704700BF080000202DE9F041DC
:1057240004460F4615464FF001080D4EBC4201DBFE
:10573400BDE8F081F26808FA04F333EA020203D008
:10574400326933EA020209D1F360336155F8343027
:1057540023B12A1D204652F8341098470134E5E756
:10576400002002460123054A8340D2F880100B43EF
:10577400C2F88030024B1856FFF742BD00200246A3
:105784002F8707081F2808DC012204498240D1F82A
:10579400803023EA0203C1F88030704700200246BB
:1057A40003292AD8DFE801F0020E141F0122134B4B
:1057B4008240196821EA02011960596821EA02024B
:1057C4005A60704701220D4B824019681143F3E778
:1057D40001220A4B8240596811435960196821EA31
:1057E40002021A607047012303FA00F0034B1A689F
:1057F40002431A605A6810435860704700200246FA
:1058040010B5074B044653F8300028B943F8341058
:1058140003EBC4035A6010BD6FF00F00FBE700BF39
:10582400980100200022034B43F8302003EBC0030F
:105834005A607047980100200A68112A13D80B4B4C
:10584400D340DB070FD54968CBB203F18C4303F592
:1058540003331868C1F30242C1F304218A400243AE
:105864001A60002070476FF0850070470C880200B2
:105874000D4A0E49936813F4000308D0936813F497
:1058840000030CD1D2F8F42051F82300704790683B
:10589400000207D4D2F8F430C3F30333F4E7936877
:1058A4001B0FF1E79268EFE7000C024644850708F6
:1058B40010B52A4B144618680B68112B2CD813B951
:1058C4006FF0850034E0013B102BF9D801A252F8A7
:1058D40023F000BF4F5907083759070837590708FD
:1058E400C5580708C5580708C5580708C558070804
:1058F400C5580708C5580708C5580708595907085F
:10590400C5580708C5580708C55807084359070864
:105914004959070837590708882B07D08C3B1C2B9B
:10592400CED80F4A22FA03F3DB07C9D52060002042
:1059340010BDFFF79DFF502358434008F6E7FFF7DB
:1059440097FFF3E7074B1868F0E7FFF791FF502341
:105954005843EBE74FF40040E8E700BF380000206D
:10596400110111114485070837B5884CE36913F018
:105974000C0F40F00481FFF77BFF236A844A03F095
:105984000F03D35C20FA03F5824BDA6842F4403209
:10599400DA60DA681204FCD57F48854201D200F04F
:1059A40079FC7A4BD3F8942042F00402C3F8942093
:1059B400D3F8943003F004030193019B754B9A6A66
:1059C400D40706D49A6A42F001029A629A6AD0070E
:1059D400FCD56E4BD3F8F02022F0180242F01002EE
:1059E400C3F8F020D3F8F02042F00102C3F8F0200D
:1059F400D3F8F0209107FBD5D3F8F02042F08002D1
:105A0400C3F8F020614BD3F8F0201205FBD56149AF
:105A14008A6A22F001028A629A6842F400029A6059
:105A24009A6822F0704242F080429A601A6842F00A
:105A340040021A601A6842F008021A601A6842F0BA
:105A440001021A60514B1A685407FCD5DA6902F056
:105A54000C020C2A1AD11A68500507D41A6842F4A9
:105A640080721A60494A13685905FCD5474B1A6A73
:105A740022F00F021A62DA6922F0030242F00102F4
:105A8400DA61DA6902F00C02042AFAD13F4C236885
:105A940023F080732360A36A23F0030343F001031C
:105AA400A362FFF7E5FE3D4AA0F57413A3F5106366
:105AB400934266D93A4B3B4A0344934263D203224E
:105AC400A36A23F47063A362A36A23F00C0343EA7A
:105AD4008203A362636B23F4FF7323F0010343F097
:105AE4004F036363A36A23F01003A362636B23F47D
:105AF400FE0343F480336363A36A43F40033A36275
:105B0400636B23F0FE4343F080736363A36A43F43F
:105B14008023A362236843F0807323601B4B1A68BD
:105B24009201FCD5DA6A22F00302DA621A6B22F0DF
:105B340003021A631A6A22F00F021A621A6A22F026
:105B440070021A621A6A22F4E0621A625A6A22F035
:105B540070025A62DA6942F00302DA610B4AD369CD
:105B640003F00C030C2BFAD10B4CA54202D32046B4
:105B740000F090FB00200C4B1C6003B030BD0020F3
:105B8400FBE602229CE76FF02100F6E7000C0246D8
:105B9400EA870708000802460068890900093D00F1
:105BA400FFED85FF00127A003800002008B5074891
:105BB40001F0B3FF38B10648FFF7AAFD0448FEF729
:105BC400F3FE002008BD6FF01200FBE7287F0708F2
:105BD400D95B07080A2838B50446074D04D1AB68D9
:105BE4000D2128465B689847AB6803485B68E1B2BF
:105BF4009847204638BD00BF287F070838B5036999
:105C0400044658600A4D284601F087FF68B1094AE6
:105C14002846136943F0005313616168AB680C3183
:105C24001B68984700EAE07038BD6FF01200FBE78C
:105C3400087E070800080246F8B51746B7F5001FA6
:105C44000C461D46466802691BD1CA00C1F3810394
:105C54002849183351F823100F2302F018029340F7
:105C64000B40D340B2689A4209D12046FFF78AFD1F
:105C74002046FFF7D7FD00212046FFF791FD0020C5
:105C8400F8BDB7F5800F2ED020461B49FFF7B8FDAD
:105C940060BB0F2004F00C0303F18C4303F50833BD
:105CA400E200196E02F01802904021EA0001B06887
:105CB400B5F1806F00FA02F242EA01021A660ED0D0
:105CC400B5F1C06F0DD005F17E43594259414900E9
:105CD4002046FFF765FD2046FFF744FDCFE701218D
:105CE400F6E70321F4E76FF08500C9E76FF00F00D2
:105CF400C6E700BF00200246C5780708F7B5064688
:105D0400446807694148786001F007FF002879D0AA
:105D14007868616883681B6898470546002869D1DC
:105D2400014601AAA06901F0C4FE002801DA054673
:105D340060E0019B2A461979186800F065FA00288A
:105D4400F5DB2268136823F001031360216851E82E
:105D5400003F43F00C0341E80032002AF7D12369E5
:105D6400022B4AD0012B12BF00204FF480504FF475
:105D7400C062216810430B6823F0805323F4B053AE
:105D840003430B604B6823F440534B60237B2BB1DC
:105D940073681A68936843F44073936030463968B3
:105DA40001F0E4FD237D23B12268936843F00803E6
:105DB4009360637D23B12268536843F400435360C6
:105DC400A37D23B12268536843F480335360E37D99
:105DD40023B12268536843F4003353602268136884
:105DE40043F0010313602368DA699102FCD5DA6990
:105DF4005202FCD5284603B0F0BD4FF480504FF456
:105E04008062B6E76FF01205F4E700BF087E07086A
:105E14002DE9F0410B790C46012B4568066900F029
:105E2400AA809A1E51425141890294F805C094F8FF
:105E34000680BCF1020F96BF754A4FF4005732F842
:105E44001C70B8F1020FE27900F09880B8F1040FE9
:105E540000F0BD80002B40F09E80012A2CF0020C43
:105E640040F0C680BCF1000F00F0B180B8F1010F22
:105E740040F2AD804FF4407ED5F800C082B3DFF825
:105E84009481C4452AD008F18058C44526D0DFF84F
:105E94008881C44522D008F18058C4451ED0DFF85B
:105EA4007C81C4451AD008F18058C44516D0DFF867
:105EB4007081C44512D008F18058C4450ED0DFF873
:105EC4006481C4450AD0BCF1502F07D0DFF8588153
:105ED400C44503D008F18058C44578D1012A76D14D
:105EE400DCF8002022F00102CCF800204268D2F84D
:105EF40000C0DCF8002002F4C06291421FBFDCF84D
:105F0400002022F4C0620A43CCF8002042681168E1
:105F14004A6802F4405297421FBF4A6822F4405232
:105F24003A434A60426811680A6802F010229A42B1
:105F34001FBF0A6822F0102213430B6043681A68DB
:105F4400936803F440739E451FBF936823F4407322
:105F540043EA0E03936021683368994203D001F049
:105F640005FD2368336000202A68136843F00103A9
:105F74001360BDE8F0814FF4C06156E70BBB012A02
:105F84002CF0020C2FD1BCF1000F20D04FF4407E36
:105F94004FF0805370E7033B012ADBB20CD1012B95
:105FA40015D94FF4407E1CF0FD0F10D0B8F1010F4D
:105FB4000DD94FF480535FE7012B08D94FF0000E41
:105FC400F1E7033B012ADBB204D0012B19D86FF0AF
:105FD4008500CEE7012BFAD91CF0FD0FF7D04FF462
:105FE400407E002348E7BCF1000FF0D09E46CFE787
:105FF400BCF1000FEBD0B8F1010FE8D99E4673460F
:106004003AE71CF0FD0FE2D04FF0000EF7E700BFB7
:106014009C850708003801400044004000480040C7
:10602400004C004000500040002400464FF0E023A4
:1060340010B59A691969986911F4803F084B0949A8
:1060440001D1824206D21A680C6822441A604FF0C9
:10605400E02212691B680A681344181A10BD00BFB5
:10606400A8020020B402002010220020084B83F86C
:106074002320084A084B1A60084B18604FF0E023AD
:106084005A6198611A6942F007021A61704700BFA9
:1060940000ED00E0FF700200B4020020A80200201E
:1060A40008B5FFF7C3FF0B4B0B4A18681168084487
:1060B400106000221A60094A09491368C01AB0FB2B
:1060C400F1F001FB0033136001F00CF8BDE8084067
:1060D400FFF78CB9A8020020B0020020AC02002017
:1060E400007102002DE9F041314E002952D0421CCA
:1060F4000AD14FF0E022136923F0010313614FF03A
:106104007F433360BDE8F0813468012847DD6728A8
:1061140048DC00F1FF384FF01003EFF3118583F3EF
:106124001288BFF36F8FFFF781FF4FF0E023002247
:1061340020499F690B6818441F4B1A601F4B1B684A
:10614400C21A32D4DFF878C01B1A0CFB082202F5FD
:106154001C32FF32B2FBFCF20CFB023342F210722F
:10616400934222D9174A934228BF13464FF0E022A4
:106174003360013B966953610023B742A7EB0607DE
:1061840038BF3F1938449361086085F31188BFF321
:106194006F8FB7E7431C3468B7D16720B9E74FF076
:1061A4000008B8E74FF06708B5E742F21073DDE77F
:1061B400B4020020B0020020A8020020AC0200209B
:1061C400007102000077FB0010B54FF01003EFF3ED
:1061D400118483F31288BFF36F8FFFF727FF074BF8
:1061E400074A1B6812689B1A034484F31188BFF39F
:1061F4006F8F0448B3FBF0F010BD00BFB002002065
:10620400AC020020007102002DE9F047044600258D
:106214001F4F00EBC106B44201D1002014E02268F4
:10622400D10602F01F0911D4656845F02005C2F3B8
:10623400471AC2F343220A2A27D857F82280B8F112
:10624400000F11D16FF01200BDE8F087B9F1100F03
:1062540008D0B9F1110FEAD165682B05E7D545F0EF
:106264001005E4E73025E2E7404601F056FC00283B
:10627400E8D04B462A4640460AF00F0101F037FBAE
:10628400002804F10804C6DADEE76FF01500DBE746
:1062940018850708A8B1304BDA6802F44032B2F529
:1062A400403F10D12D4B984251D92D4B984250D993
:1062B4002C4B984235D92C4B984216D92B4B9842EB
:1062C40031D901207047DA6802F44032B2F5003F58
:1062D4000DD1274B98423AD9264B984239D9264BAF
:1062E40098421ED9254B9842EBD803201CE0DB686A
:1062F40003F44033B3F5803F0AD1214B984226D9A9
:106304001B4B984225D91F4B98420AD9194BEAE7EF
:106314001D4B98421BD91D4B98421AD91C4B9842CD
:10632400CFD8022000E004201A4A136823F00F0398
:1063340003431360136803F00F0398420EBF034630
:10634400136803F00F03C01A18BF01207047002020
:10635400EAE70120E8E700BF000802460048E80138
:106364000090D00300D8B8050020A107006889096F
:1063740040787D0180F0FA02C068780400E1F505F8
:1063840020BCBE0060343C0200127A000024F400F9
:1063940000366E01002002402DE9F0411F46154BE6
:1063A400044693F800800D461646A2B0B8F1000FDB
:1063B40015D1684601F08EF83A4631462846289BA6
:1063C400A0470446684601F086F8B8F1000F02D0F1
:1063D400094800F02DFA204622B0BDE8F0814FF0C4
:1063E400FF324FF0FF33044800F0A8F90028E0D052
:1063F4001F24F0E7EC0200208C000020002307B5E6
:106404001A46194600930348FFF7C6FF03B05DF828
:1064140004FB00BF811C070C002307B501461A4684
:1064240000930348FFF7B8FF03B05DF804FB00BF17
:10643400891C070C30B401F50045B5F5803F039C79
:106444000DD243EA0405FF2D09D844EA0324134678
:1064540044EA0142014630BC0348FFF79DBF6FF098
:10646400800030BC704700BFA11C070C002307B597
:106474000A46009301460348FFF78EFF03B05DF818
:1064840004FB00BF991C070C002307B501461A46FC
:1064940000930348FFF780FF03B05DF804FB00BFDF
:1064A400911C070C0F4B70B553F82040013053F882
:1064B4002060A64200D870BDD4E90035284698472C
:1064C4006DB138B10028B8BF4042FF28A8BFFF20F3
:1064D400EB681870EA68537843F00103537008348A
:1064E400E7E700BF84850708012208B5094B0220AD
:1064F4001A70FFF7D7FF00F071FE0320FFF7D2FFF9
:1065040000F0D6F8FEF7FCF9034A137B23F00103ED
:10651400137308BDEC0200201801002008B50348DD
:10652400034A0021121A01F029FB08BDA000002033
:10653400F0020020782370B5134E012203FB00669D
:10654400002386B0CDE904230F220193CDE9023262
:1065540018234FF4A0720D4D0D4903FB005504465A
:1065640002FB00110B4B3046009500F077F8737B6B
:106574002C7523F004037373074B013403EBC4231A
:10658400EE606B6006B070BDA0000020B802002071
:10659400F00A0020897B0708F002002080B5284B10
:1065A400A4B083F308880024F023264D264E85F8F2
:1065B4002230EC772C766C76AC7685F820406B6ACA
:1065C400224F43F4E0236B62FFF708F8FEF704FE62
:1065D4004FF0FF33AB62EB6240F2011306AD284685
:1065E400ADF8243000F0F4FDB56001F095FA2046D2
:1065F400FFF758FF0120164DFFF754FF00F084FB0E
:10660400144BB5610593012313494FF48052CDE92E
:10661400034328463B46CDE90144009400F01EF8AC
:1066240006466A7B284622F004026A7301F01AFBCC
:106634002046FFF77FFF3A4631462846FEF7B0FE74
:10664400F00A002000ED00E0B8020020ED64070825
:1066540018010020FA870708300C00207FB50C9E33
:1066640000F1580506730426C0E9165500250446B2
:10667400467307320B9E22F0070286738E180A9A1D
:10668400C0E906558560C5730292099A0192089A79
:1066940000923246FEF766FE044B65659B6803B1C3
:1066A4005B6E3046636604B070BD00BFB802002064
:1066B40070B51F4C1F4D86B02646AE4204F130041F
:1066C4000AD300F0F1FA1A4C1B4EAC4220D306B0A8
:1066D400BDE8704000F0FCBA54F8043C059354F84B
:1066E400103C049354F8143C039354F8183C02935C
:1066F40054F81C3C019354F8203C009354E90A23B9
:1067040054E90C01FFF7AAFF54F8303C5E65D3E767
:10671400626A531C04D0002A206803DC00F074FA77
:106724003034D2E73146D317183000F05DFCF7E778
:106734007800002078000020D57B07082DE9F3417C
:10674400044617461E464FF01003EFF3118883F3F7
:106754001288BFF36F8FC368334A7BB18068916836
:10676400884219D057EA060318D188F31188BFF379
:106774006F8F6FF00F0002B0BDE8F081916891F95E
:106784000E100133E36093682161A36088F31188DC
:10679400BFF36F8F0020EEE72169F2E791F90E1045
:1067A40090F90E306FF07E029942A8BF19469142CB
:1067B400B8BF11468B422EDD01F0F0F905462246A2
:1067C4004146CDE90076194800F0B2F90028E1D03D
:1067D4004FF01003EFF3118683F31288BFF36F8F2A
:1067E400A068D0B1236821699C420AD04BB193F9C7
:1067F4000E309942A8BF19466FF07E039942B8BF84
:10680400194601F0CBF940B13146084800F0EAF9E5
:106814006FF00A00AFE70025D1E7002DF4D186F32D
:106824001188BFF36F8FF3E7B8020020ED02002058
:1068340038B5836804466BB3194A926893422CD1E5
:10684400C368012B03D9013BC360002038BD4FF05E
:106854001003EFF3118583F31288BFF36F8F01697F
:10686400806801F09BF9204601F00CFAA06058B151
:1068740090F90E2022610022C26601F0F3F9294644
:10688400084800F0AFF9E0E7E06085F31188BFF352
:106894006F8FDAE76FF01500D8E74FF0FF30D5E7D8
:1068A400B8020020ED02002038B5074D2C6854B121
:1068B400FFF78AFC054B04441C6128680021BDE8ED
:1068C400384001F027BA38BDE4020020B8020020A5
:1068D40038B50D4D2B4653F81C4F9C4200D004B9DB
:1068E400EC68AB6838B95A7BD20604D1A26912B9F4
:1068F400DA897F2A05D89C4202D02046FFF7D4FFCC
:106904002346AB6138BD00BFB802002070B590F9D2
:106914000D200146002A437B04DA03F07F0343730E
:1069240001F044F9154A4B7B104663F07F034B7327
:1069340050F81C3F146A834208BF002323B9C1E9FD
:106944000004216011620CE091F90E5093F90E607D
:10695400B5420ED0AE420CDD5868C1E9003001608A
:1069640059609068BDE87040431A58425841FFF797
:10697400AFBF9C42E3D01B68E0E700BFB802002031
:1069840070B490F90D30427B002B29DBD30627D15C
:1069940083692BBB134962F07F0242730A4652F8A3
:1069A4001C4F944218BF23460C6A23B9C0E9002443
:1069B400206008620CE090F90E5093F90E60B54225
:1069C4000AD0AE4208DD5A68C0E90032106058604F
:1069D400002070BCFFF77CBFA342E7D01B68E4E74C
:1069E40070BC7047B802002008B590F90D2001462C
:1069F400002A437B04DA03F07F03437301F0D6F8E3
:106A0400044B9868431A58425841BDE80840FFF7C0
:106A14005FBF00BFB80200202DE9F04106461546CD
:106A24001C464FF01003EFF3118783F31288BFF372
:106A34006F8F01F0EFF887F31188BFF36F8FB4F114
:106A4400FF3F08BFB5F1FF3F08D02A46234606F1B1
:106A540018000349BDE8F04100F0C6BABDE8F08172
:106A6400D57B070810B54FF01003EFF3118483F3BF
:106A74001288BFF36F8F002802DD0228B8BF0220FE
:106A84000022074B1A61074A1060074A9868116090
:106A9400FFF70AFF84F31188BFF36F8F10BD00BFA7
:106AA400B8020020E4020020E002002038B54FF0D4
:106AB4001003EFF3118583F31288BFF36F8F174B25
:106AC400174A9C6811688C4207D12046FFF7ECFEF8
:106AD40085F31188BFF36F8F38BD00211160114A0F
:106AE4001268C2B1E2897F2A15D8627BD20612D11C
:106AF4000D4A94F90E10126891420CDB0B4A944231
:106B040009D01A69824203DC2046FFF7FFFEDCE766
:106B1400121A1A61DCE70022FBE700BFB80200206A
:106B2400DC020020E4020020E0020020A00000209B
:106B340010B50C46064B11469868064B1860DDE903
:106B44000223FFF769FF2046BDE81040FEF7B8BBFB
:106B5400B8020020DC020020F8B504464FF0100310
:106B6400EFF3118683F31288BFF36F8F437B49B22F
:106B7400DA0619D18569BDB903F07F03437301F0C7
:106B840015F8437B164A63F07F03437313468173FE
:106B940053F81C0F984218BF0546106A5DB9C4E942
:106BA40000300460146211E00020A17386F31188A0
:106BB400BFF36F8FF8BD95F90E70B9420BD08F42B9
:106BC40009DD6B68C4E900531C606C600120FFF7A9
:106BD4007FFE0120EAE7A842E1D02D68DEE700BF8E
:106BE400B802002049B9EFF3058030B9054B9A6922
:106BF4009B689A4201D0FEF763BB81F31188BFF30F
:106C04006F8F7047B802002010B54FF01002EFF3F9
:106C1400118482F31288BFF36F8F427B510704D42F
:106C240084F31188BFF36F8F10BD22F00402427306
:106C3400FFF7A6FE2146BDE810400148FFF7D2BF8A
:106C4400ED02002070B50446183001F04DF84FF005
:106C54001003EFF3118683F31288BFF36F8F94F957
:106C64000D20637B002A05DA03F07F03204663735B
:106C740000F09CFF0B4D637BA86843F01003637323
:106C8400031B58425841FFF723FE86F31188BFF3D4
:106C94006F8FAB68A34203D1BDE8704001F01AB80E
:106CA40070BD00BFB80200204FF01003EFF3118154
:106CB40083F31288BFF36F8F044B9A68D37B013B35
:106CC400D37381F31188BFF36F8F7047B80200202C
:106CD40010B54FF01003EFF3118483F31288BFF360
:106CE4006F8F084B00209A68D37B0133D373FFF76F
:106CF400EFFD84F31188BFF36F8FBDE8104000F0FF
:106D0400E9BF00BFB80200200021044B084603F18C
:106D14001C02C3E90722FFF7A5BE00BFB80200208A
:106D2400F8B54FF01003EFF3118583F31288BFF326
:106D34006F8F19498868437B03F07F03437300F026
:106D440035FF08468B685A7B62F07F025A7350F80D
:106D54001C2F0C6A824208BF002222B9C3E9000436
:106D640023600B620CE093F90E6092F90E70BE4240
:106D74000ED0B7420CDD5168C3E900210B605360AB
:106D84000120FFF7A5FD2846BDE8F840FEF798BAB4
:106D9400A242E3D01268E0E7B802002050EA0103FF
:106DA4002DE9F04105460E4603D1FFF7B9FF002057
:106DB4002CE0831C71F1FF332ADB00F0C7FF441978
:106DC4004FF01003EFF3118883F31288BFF36F8F32
:106DD400114F124BB8681860FFF706FEB8681049E7
:106DE4002A463346183000F0FFF8BA684046537B11
:106DF40043F010035373FEF763FA00F0A7FF201A61
:106E040063EB0303012873F10003D0DBBDE8F081D9
:106E14006FF00104241AD3E7B8020020DC0200203A
:106E2400D57B0708B1F1FF3F08BFB0F1FF3F08B5BC
:106E340003D0BDE80840FFF7B1BF034B9868FFF7E4
:106E440001FF4FF0FF3008BDB8020020014B9868E5
:106E5400704700BFB80200202DE9F04104464FF00E
:106E64001003EFF3118683F31288BFF36F8F037B54
:106E7400D9070BD586F31188BFF36F8F404080F399
:106E840011884FF0040002DFBDE8F081437B1A074C
:106E940004D586F31188BFF36F8FF5E723F0200242
:106EA40042F00801D20920D14173A36813B12046EE
:106EB40000F084FE04F1180000F016FF4FF0000803
:106EC40004F15807A56DBD4200D0B5B90120FFF704
:106ED400FFFC104B9B68A342DBD1EFF30583002B2F
:106EE400D7D13046FEF7ECF9D3E703F05F0343F064
:106EF4000803437300F05AFED7E7284600F05EFE0D
:106F040005F1180000F0F0FE2846C5F86C80FFF784
:106F140037FDD7E7B802002008B50648064A0749F6
:106F2400121A00F02DFEBDE80840054A054906483E
:106F340000F026BE00000020A000002044880708BE
:106F4400000000004488070800000020034B1B6871
:106F54000BB9FFF739B90020704700BFE8020020E1
:106F640010B5114B1C689C420AD1FFF7EFFF6FF07C
:106F740000400E4B1B6913B19842A8BF184610BDC0
:106F8400FFF7E4FF002CF2D0D4E904321B1A62EBC1
:106F9400E072B3F1004F72F10001E8DA002AACBFED
:106FA40018460020E5E700BF3C000020B80200209E
:106FB40030B570B10B4B5B6898420AD0036843B19B
:106FC400D3E90421D0E90445121941EB0501C3E9D1
:106FD4000421D0E9003213605A600023C0E9003371
:106FE40030BD00BF3C000020B3F1FF3F08BFB2F149
:106FF400FF3FF8B504461D46164661D081604FF048
:107004001003EFF3118783F31288BFF36F8F0132FC
:1070140075F1FF3324DA6FF001032F49D1E9002021
:107024009B1A4FF0FF3262EB00009E1B60EB0500E1
:10703400012E70F1000301DA01260020C4E9046086
:10704400264ED6F800C07568B44508BF4FF0000C52
:10705400BCF1000F0DD1C4E900652C6074601CE024
:10706400FFF774FF013645F10005361845EBE07073
:10707400E4E7DCE90420D4E90431934271EB000E27
:107084001FDAD21ADCF8043060EB0100CCE90420EA
:10709400C4E900C31C60CCF804403368B3420BD08D
:1070A4009C4209D1FFF75CFF18B10D4B1B69834269
:1070B40002D00021FFF716F887F31188BFF36F8F12
:1070C400F8BD9B1A61EB0001AC45C4E90431C2D0A0
:1070D400DCF800C0BCE700BF900100203C000020A9
:1070E400B80200202DE9F8430446FFF7DFFC4FF017
:1070F4001003EFF3118683F31288BFF36F8F244FCD
:10710400DFF89080D8F80000234A40453C604FEAFD
:10711400E471D2E9003E0BD050B1D0E9045CAC423A
:1071240071EB0C0917DA2D1B6CEB010CC0E9045C44
:10713400E3184FF000044EEB0101C2E900313C605A
:10714400FFF70EFF2146FEF7CDFF86F31188BFF34C
:107154006F8FBDE8F883EB184EEBE571C2E900319F
:1071640000220023C0E90423FFF722FF86F31188DD
:10717400BFF36F8F836898474FF01003EFF31186C6
:1071840083F31288BFF36F8F3C68641BBAE700BFB8
:10719400E80200203C0000209001002010B54FF0D0
:1071A4001003EFF3118483F31288BFF36F8FFFF79B
:1071B400CDFE0346054AD2E90001181841EBE371FC
:1071C40084F31188BFF36F8F10BD00BF90010020BE
:1071D400014B4366704700BF78000020024A034910
:1071E400034800F01CB800BF02860708FF870708A1
:1071F4001B88070838B5064C064DAC4201D3002065
:1072040038BD2046D4E9011200F0A4FD1434F4E79B
:10721400780000208C0000207047002070470FB4D5
:1072240007B504A951F8040B0191FDF7C3FB03B0A2
:107234005DF804EB04B07047044608B508461146EF
:107244001A46A047FFF702FEFEF74CFA836800EBEC
:10725400C101B3F5004F2CBF51F8220031F81200E0
:10726400704700EBC1018068B0F5004F2CBF41F8B6
:10727400223021F812307047012208B5FFF7E6FFEB
:10728400D04008BD836800EBC101B3F5004F08D3BB
:107294004B681AB143F001034B60704723F00103BC
:1072A400FAE74B881AB143F001034B80704723F08F
:1072B4000103FAE753000122FFF7D3BFB0F5004FF3
:1072C40034BF04230823481C0833A0EBD300B0FACE
:1072D40080F0C0F11F0070472DE9F0410D4686682B
:1072E4000446FFF7C9FFB6F5004F014601D3012854
:1072F40032D03046FFF7E2FF04EB80010E6996B905
:107304000122E36882401343E36002220D612B46AD
:1073140029462046FFF7A5FF032229462046BDE85B
:10732400F041FFF79EBF022231462046FFF78EFF51
:107334000746034629462046FFF793FF03223346B8
:1073440029462046FFF78DFF39462B462046FFF796
:1073540088FF02223146E1E7BDE8F081B2F5802FD3
:10736400F8B52CBF08230423CE1D26F00706D21A35
:107374008C183746002224F00704A41BE408066096
:107384002146B460204647F80C2FFFF797FF1346B9
:1073940085001B35ED0898422EDA2A463046002136
:1073A400FFF788FF002330461A461946FFF759FFB6
:1073B400671B194630460122FFF764FF3A46294607
:1073C400FFF778FF2B46002229463046FFF749FF96
:1073D40021463046FFF76EFF3B46214630460022E9
:1073E400FFF73FFF214630460122FFF74BFF2946B6
:1073F400BDE8F840FFF770BF47F8042F0133CAE730
:107404002DE9F84F9A46D37880466F2B0F461546E0
:10741400A3F1410B29D024D8582B0CBF10260A26DF
:10742400DDF828903246002340463946FDF700F93E
:10743400092AD4B21ED83034B045E4B277F100073B
:1074440009F8014D01D3D14511D82B789B0605D5F8
:10745400082E15D1AB7843F00803AB704846BDE85D
:10746400F88F03F0F703702BD7E70826D8E7804698
:107474000F46D7E7BBF1190F94BF37345734DBE716
:10748400102EEBD1AB7843F01003E6E72DE9F04181
:107494000746884615461E461446B44205D30EB127
:1074A400601B08E02378002BFAD0414614F8010B46
:1074B400B8470028F1DABDE8F08170470020704732
:1074C40000F041BB0146006800F03DBB00210120F3
:1074D400FFF7F6BF70477047034600201A5C02B9F5
:1074E40070470130FAE7034600201A5C0AB188426B
:1074F40000D170470130F8E710B5431E0A449142A9
:1075040000D110BD11F8014B03F8014FF7E7034612
:10751400C9B20244934200D1704703F8011BF9E752
:107524004FF0FF307047002208B511460B20FDF7DD
:1075340075FE00220C201146FDF770FE00220D207E
:107544001146FDF76BFE00220E201146FDF766FE84
:1075540000220F201146FDF761FE00221020114683
:10756400FDF75CFE002211201146FDF757FE0022B4
:1075740012201146FDF752FE002213201146FDF79A
:107584004DFE002214201146FDF748FE002215206E
:107594001146FDF743FE002216201146FDF73EFE7C
:1075A400002217201146FDF739FE0022182011464B
:1075B400FDF734FE002219201146FDF72FFE0022AC
:1075C4001A201146FDF72AFE002008BD0269102189
:1075D4000F20FEF7A3B802690F210E20FEF79EB814
:1075E40002690E210D20FEF799B802690D210C20C5
:1075F400FEF794B802690C210B20FEF78FB80269DC
:107604000B210A20FEF78AB802690A210920FEF735
:1076140085B8026909210820FEF780B802690821AB
:107624000720FEF77BB8026907210620FEF776B82B
:10763400026906210520FEF771B8026905210420BC
:10764400FEF76CB8026904210320FEF767B80269EB
:1076540003210220FEF762B8026902210120FEF72D
:107664005DB8026901210020FEF758B80B68A3F148
:107674008802202A9FBF03F18C4303F503331A6861
:1076840049689BBF00200A436FF085001A60704769
:107694000B68A3F18802202A9FBF03F18C4303F5F2
:1076A40003331A6849689BBF00208A436FF0850042
:1076B4001A607047436800205B681B690B60704761
:1076C40043685B68586942400A4042405A6100205E
:1076D4007047436800205B689961704743680020E5
:1076E4005B6899627047436800205A6853694B404D
:1076F4005361704710B50369986848B1884213D143
:10770400DC680868A142986000D1D8600020086055
:107714007AB9002010BD814206D108682060D8687B
:107724008142F3D1DC60F1E7044600680028F2D11D
:107734003AB19A680A60DA689960002AE9D1D96096
:10774400E7E76FF01500E5E7F0B5446801206768E6
:1077540088401E46C2F3801327EA00078B403B4350
:1077640090FAA0F7B7FA87F74FF0030E6360D4F8E6
:1077740008C07F000EFA07F72CEA070C90FAA0F76E
:10778400B7FA87F7C2F3C1137F00BB4043EA0C0387
:10779400A36090FAA0F3B3FA83F3E7685B000EFAF0
:1077A40003F327EA030790FAA0F3B3FA83F302F092
:1077B40030055B00C2F341229A403A43202DE26037
:1077C40016D107292BDC90FAA0F3226A2BB3B3FA63
:1077D40083F30F219B0001FA03F322EA030290FAD8
:1077E400A0F3B3FA83F39B0006FA03F31343236273
:1077F40090FAA0F3B3FA83F390FAA0F00321B0FA5D
:1078040080F022685B002D0901FA03F3400022EAAC
:10781400030385401D432560F0BD2B46D9E7030AC9
:10782400616A93FAA3F282B1B2FA82F293FAA3F3F1
:107834000F27B3FA83F3920007FA02F29B0021EABE
:1078440002029E4016436662D2E72A46EEE71346DA
:107854009A0310B518D59C070FD55A072DD5502279
:10786400DC060CD542F4007213F4002F446818D0DF
:10787400012364688B40A3610DE01022F0E79C06AD
:10788400F2D542F48062EFE7DC0311D5DA0611D4B5
:10789400C3F340139A0240680023FFF755FF00200A
:1078A40010BD5B03F7D5012364688B40A362F2E744
:1078B4003022F0E74FF40072EDE76FF08500EFE758
:1078C40070B50B46896821B101255E680C68854056
:1078D40001B970BD8A682A4002D030464B68984787
:1078E4001CB1236821461C46F2E72346FAE7F8B5A3
:1078F4001F46044640680E461546FFF725FF112F24
:1079040008D1012303FA06F663682A055B684CBFB5
:107914009E619E620020F8BD43681A68D069D169EF
:10792400C0F3C000C907D16948BF40F0020089070D
:10793400D16948BF40F00400C90542BF4FF48071CB
:1079440040F008001162C20742BF08211A681162A0
:10795400810742BF01211A681162420742BF022116
:107964001A68116204221B681A62704737B50369EA
:10797400456858680C4683686968DB688BB101AA5E
:10798400984700280DDB2A68136823F4004313602A
:107994002B6801992CB101EB5401B1FBF4F189B2CC
:1079A400D96003B030BD10B540680268D3691B06C6
:1079B400FCD54FF01002EFF3118382F31288BFF36A
:1079C4006F8F0268D469240604D483F31188BFF34B
:1079D4006F8FEAE7916283F31188BFF36F8F10BD55
:1079E40043681A68D069000744BF082010621B6806
:1079F400DA69920643BF5B6A00200B704FF0FF30D8
:107A0400704703691B680B6043681B681B6803F4B9
:107A1400C063B3F5806F35D0A3F5C06CDCF100030F
:107A240043EB0C030B7143681B685B6803F440531E
:107A3400B3F5805F28D0B3F5405F27D0002B0CBF8F
:107A4400012303234B7143681B681A681B6802F007
:107A54001022B2F5805F03F4C06319D0B2F1805FE5
:107A64001BD1002B14BF012302238B714368002018
:107A74001B689B6803F44073A3F54072534253415F
:107A8400CB7170470223CDE70023DBE70223D9E75C
:107A9400002B14BF03230423E7E7002B14BF0223A6
:107AA4000323E2E74FF0E022136923F0010313619B
:107AB400704770B56FF06046036813600579046819
:107AC400354404EBC504A34202D96FF0010070BD34
:107AD4005C798C4201D00833EFE70020F7E70020FF
:107AE400704700F000B837B501214020FEF7BEFC16
:107AF400051E02DC012003B030BD00231A461946DE
:107B0400CDE90033FEF796FC04462846FEF7BCFC9C
:107B1400002CEFDB2046EEE7704738B1C3681888C5
:107B2400C0F30800A0F580735842584170474FF0E5
:107B34001002EFF3118382F31288BFF36F8FFEE715
:107B440008B5FFF7F4FFF8B505460E464FF01003ED
:107B5400EFF3118783F31288BFF36F8FFFF776F982
:107B6400314604462846FFF7EBFF87F31188BFF33D
:107B74006F8F2046BDE8F840FDF7B4BDFFF7C7BCE2
:107B8400FFF7BABC08B54FF01002EFF3118382F38C
:107B94001288BFF36F8FFDF725FBF4E790F90E30E1
:107BA4008B4201D0FEF7D8BF00207047D0E90032E5
:107BB40013605A600023C0E90033704708B5FFF72B
:107BC400F5FF437B23F0020343730023836008BD66
:107BD400014610B54FF01003EFF3118483F31288BC
:107BE400BFF36F8F10F80B3C13F0280F0DD151F831
:107BF400103C18380BB1FFF7E1FF11F80B3C23F0F0
:107C0400140301F80B3CFEF7BBFE84F31188BFF3A9
:107C14006F8F10BD38B504460D46FEF7E5FE637B55
:107C240043F002036373E5B1A5602B689D4209D15B
:107C34006B68C4E900531C606C6012E06A6893428C
:107C4400F6D01B68002BF3D094F90E2093F90E1094
:107C54008A42F3D09142F1DD5A68C4E900321460DB
:107C64005C6038BD10B54FF01003EFF3118483F35B
:107C74001288BFF36F8FFEF783FE84F31188BFF37E
:107C84006F8F10BD38B54FF01003EFF3118583F3F8
:107C94001288BFF36F8F0468A0420DD034B1204620
:107CA400FFF78CFF04F1180000F01EF885F311882B
:107CB400BFF36F8F204638BD0024F7E7034620B991
:107CC400EFF305820AB9FDF7FBBA83F31188BFF31A
:107CD4006F8F70474FF01003EFF3118083F3128816
:107CE400BFF36F8FFFF7EABF10B54FF01002EFF349
:107CF400118482F31288BFF36F8F03683BB1FFF7DF
:107D040057F9002084F31188BFF36F8F10BD6FF013
:107D14001500F7E770B504460D464FF01003EFF376
:107D2400118683F31288BFF36F8FFFF719F90128C7
:107D340007DDA04205DBA0422946A8BF2046FEF786
:107D4400D1F986F31188BFF36F8F70BD08B5FFF7C3
:107D540025FA08BD10B400F10C04C0E9034410BCBA
:047D6400FFF7FCBA6F
:087D680000C9FF7F01000000CB
:107D70006951070800000000C174070800000000F6
:107D80006D590708087E0708F97107080000000010
:107D90002B750708207E0708015C0708387E070856
:107DA000015C0708507E0708015C0708687E070829
:107DB000015C0708807E0708015C0708987E0708B9
:107DC000015C0708B07E0708015C0708C87E070849
:107DD000015C0708E07E0708015C0708F87E0708D9
:107DE000015D0708107F0708015D0708287F070865
:107DF000B15B0708000000006D600708000000008C
:087E0000E37A0708000000000E
:107E08003F870708000000000C0000204800002001
:107E1800000000008683070811870708000000009B
:107E2800000000004400002098010020808307081B
:107E38004C870708A4830708588407084C000020CB
:107E480018020020788307085A870708B8830708AC
:107E58005884070850000020280200207083070873
:107E680068870708CC83070858840708540000204F
:107E7800380200206883070876870708E083070828
:107E8800588407085800002048020020608307082B
:107E980084870708F4830708588407085C000020D3
:107EA80058020020588307089287070808840708A3
:107EB80058840708600000206802002050830708E3
:107EC800A08707081C840708588407086400002056
:107ED8007802002048830708AE870708308407081F
:107EE800588407086800002088020020408307089B
:107EF800BC87070844840708588407086C000020DA
:107F08009802002038830708CA8707087C84070876
:107F18000485070870000020280000203083070827
:107F2800DA870708C084070804850708740000205A
:087F3800300000202883070837
:107F400000000000D174070800000000D174070889
:107F500000000000D174070800000000D174070879
:107F600000000000D174070800000000D174070869
:107F700000000000D174070800000000D174070859
:107F800000000000D174070800000000D174070849
:107F900000000000D1740708207E070867760708F4
:107FA000207E07085D760708207E070853760708BD
:107FB000207E070849760708207E07083F760708D5
:107FC000207E070835760708207E07082B760708ED
:107FD000207E070821760708207E07081776070805
:107FE000207E07080D760708207E0708037607081D
:107FF000207E0708F9750708207E0708EF75070837
:10800000207E0708E5750708207E0708DB7507084E
:10801000207E0708D175070800000000D17407080A
:1080200000000000D174070800000000D1740708A8
:1080300000000000D174070800000000D174070898
:1080400000000000D174070800000000D174070888
:1080500000000000D174070800000000D174070878
:1080600000000000D174070800000000D174070868
:1080700000000000D174070800000000D174070858
:1080800000000000D174070800000000D174070848
:1080900000000000D174070800000000D174070838
:1080A00000000000D174070800000000D174070828
:1080B00000000000D174070800000000D174070818
:1080C00000000000D174070800000000D174070808
:1080D00000000000D174070800000000D1740708F8
:1080E00000000000D174070800000000D1740708E8
:1080F00000000000D174070800000000D1740708D8
:1081000000000000D174070800000000D1740708C7
:1081100000000000D174070800000000D1740708B7
:1081200000000000D174070800000000D1740708A7
:1081300000000000D174070800000000D174070897
:1081400000000000D174070800000000D174070887
:1081500000000000D174070800000000D174070877
:1081600000000000D174070800000000D174070867
:1081700000000000D174070800000000D174070857
:1081800000000000D174070800000000D174070847
:1081900000000000D174070800000000D174070837
:1081A00000000000D174070800000000D174070827
:1081B00000000000D174070800000000D174070817
:1081C00000000000D174070800000000D174070807
:1081D00000000000D174070800000000D1740708F7
:1081E00000000000D174070800000000D1740708E7
:1081F00000000000D174070800000000D1740708D7
:1082000000000000D174070800000000D1740708C6
:1082100000000000D174070800000000D1740708B6
:1082200000000000D174070800000000D1740708A6
:1082300000000000D174070800000000D174070896
:1082400000000000D174070800000000D174070886
:1082500000000000D174070800000000D174070876
:1082600000000000D174070800000000D174070866
:1082700000000000D174070800000000D174070856
:1082800000000000D174070800000000D174070846
:1082900000000000D174070800000000D174070836
:1082A00000000000D174070800000000D174070826
:1082B00000000000D174070800000000D174070816
:1082C00000000000D174070800000000D174070806
:1082D00000000000D174070800000000D1740708F6
:1082E00000000000D174070800000000D1740708E6
:1082F00000000000D174070800000000D1740708D6
:1083000000000000D174070800000000D1740708C5
:1083100000000000D174070800000000D1740708B5
:0883200000000000D174070801
:10832800010000800080FF7F010000800080FF7F47
:10833800010000800080FF7F010000800080FF7F37
:10834800010000800080FF7F010000800080FF7F27
:10835800010000800080FF7F010000800080FF7F17
:10836800010000800080FF7F010000800080FF7F07
:10837800010000800080FF7F00800080FF7F008078
:10838800008003000400050006000700080009003B
:0A8398000A000B000C000D00FF7F2F
:0283A200FFFFDB
:1083A400FFFF000000200242080000008C000000D3
:1083B40000010000FFFF0000001C02420700000053
:1083C4008C00000080000000FFFF00000018024243
:1083D400060000008C00000040000000FFFF0000C9
:1083E40000140242050000008C0000002000000080
:1083F400FFFF000000100242040000008C00000097
:1084040010000000FFFF0000000C02420300000007
:108414008C00000008000000FFFF0000000802427A
:10842400020000008C00000004000000FFFF0000B8
:1084340000040242010000008C0000000200000061
:10844400FFFF000000000242000000008C0000005A
:108454000100000053780708B9760708C5760708B5
:10846400D7760708E1760708EB7607083D5C07082E
:10847400F9760708000000000048004098840708C7
:1084840001000000000000000000000000000000E7
:10849400A08407089C00000000000400A8840708CA
:1084A40001000000B0840708020000000707000074
:1084B400000200002707000000000000003801400F
:1084C400DC84070801000000000000000000000038
:1084D40000000000E4840708A4000000004000003D
:1084E400EC84070801000000F4840708020000007F
:1084F4002701000000020000470100000000000006
:10850400E5790708AB7907081D790708155E0708A0
:10851400077A0708F87E0708E07E0708C87E070880
:10852400B07E0708987E0708807E0708687E0708E3
:10853400507E0708387E0708000000000000000095
:10854400006CDC0200366E010024F400001BB7004E
:1085540000093D0080841E0060E3160040420F00C5
:1085640000E02E000070170000A00F0000B80B0000
:10857400801A0600400D0300F0490200A0860100A5
:10858400707D0708F87D0708007E0708087E070845
:10859400087E0708F5FFFFFF001000000030546854
:1085A400652076657273696F6E206F6620746865E6
:1085B40020505341204672616D65776F726B204184
:1085C40050492069732025642E0A0054686520767A
:1085D400657273696F6E206F6620746865205053EE
:1085E40041204672616D65776F726B20415049205E
:1085F4006973206E6F742076616C6964210A00527D
:108604006F542053657276696365206973206E6FB9
:108614007420696D706C656D656E746564206F722D
:108624002063616C6C6572206973206E6F74200026
:10863400617574686F72697A656420746F20616310
:1086440063657373206974210A00546865206D6939
:108654006E6F722076657273696F6E206973202560
:10866400642E0A00436F6E6E6563742073756363D2
:10867400657373210A0054686520526F5420536552
:1086840072766963652068617320726566757365C7
:10869400642074686520636F6E6E656374696F6EC1
:1086A400210A00625F75353835695F696F7430324D
:1086B400610054462D4D20495043206F6E20257390
:1086C4000A00286E696C29004661696C656420742F
:1086D4006F207265626F6F743A207370696E6E6991
:1086E4006E6720656E646C6573736C792E2E2E0A2A
:1086F400004E4D4920726563656976656421205298
:1087040065626F6F74696E672E2E2E0A00696E742F
:108714006572727570742D636F6E74726F6C6C65B4
:1087240072403436303232303030000B0C0D0E0FC4
:10873400101112131415161718191A7263634034A2
:1087440036303230633030006770696F4034323015
:108754003232303030006770696F40343230323139
:10876400633030006770696F4034323032313830F2
:1087740030006770696F4034323032313430300049
:108784006770696F40343230323130303000677096
:10879400696F403432303230633030006770696F53
:1087A400403432303230383030006770696F4034D2
:1087B40032303230343030006770696F40343230D8
:1087C40032303030300073657269616C403430305F
:1087D40030343830300073657269616C4034303045
:1087E4003133383030000000000000000000010286
:1087F4000304060708096D61696E0076332E322E74
:10880400302D7263332D39332D6765343737643730
:10881400303639343361002A2A2A20426F6F746952
:108824006E67205A6570687972204F5320627569AB
:108834006C64202573202573202A2A2A0A0000004C
:108844001F720708855207082575070871760708FF
:108854009576070800000000B558070800000000DE
:10886400000000003D58070800C20100000000009D
:1088740000C201000000000000093D003C0000208F
:048884003C00002094
:1088880000000000000000000000000000000000E0
:1088980000000000000000000000000000000000D0
:1088A80000000000000000000000000000000000C0
:0488B80000000000BC
:1088BC0000000000301C0020001000000000000030
:0488CC0000000000A8
:1088D0008C0000208C000020000000000000000040
:0488E0000E00000086
:040000050807561D75
:00000001FF
